{
  "_format": "hh-sol-artifact-1",
  "contractName": "CommunityPool",
  "sourceName": "contracts/core/CommunityPool.sol",
  "abi": [
    {
      "inputs": [],
      "stateMutability": "nonpayable",
      "type": "constructor"
    },
    {
      "inputs": [],
      "name": "AccessControlBadConfirmation",
      "type": "error"
    },
    {
      "inputs": [
        {
          "internalType": "address",
          "name": "account",
          "type": "address"
        },
        {
          "internalType": "bytes32",
          "name": "neededRole",
          "type": "bytes32"
        }
      ],
      "name": "AccessControlUnauthorizedAccount",
      "type": "error"
    },
    {
      "inputs": [
        {
          "internalType": "address",
          "name": "target",
          "type": "address"
        }
      ],
      "name": "AddressEmptyCode",
      "type": "error"
    },
    {
      "inputs": [
        {
          "internalType": "uint8",
          "name": "assetIndex",
          "type": "uint8"
        },
        {
          "internalType": "uint256",
          "name": "balance",
          "type": "uint256"
        }
      ],
      "name": "AssetWithoutPriceFeed",
      "type": "error"
    },
    {
      "inputs": [
        {
          "internalType": "uint256",
          "name": "nextAllowedTime",
          "type": "uint256"
        }
      ],
      "name": "AutoHedgeCooldownActive",
      "type": "error"
    },
    {
      "inputs": [],
      "name": "CannotRescuePoolToken",
      "type": "error"
    },
    {
      "inputs": [],
      "name": "CircuitBreakerActive",
      "type": "error"
    },
    {
      "inputs": [
        {
          "internalType": "uint256",
          "name": "dailyTotal",
          "type": "uint256"
        },
        {
          "internalType": "uint256",
          "name": "maxDaily",
          "type": "uint256"
        }
      ],
      "name": "DailyHedgeCapExceeded",
      "type": "error"
    },
    {
      "inputs": [
        {
          "internalType": "uint256",
          "name": "requested",
          "type": "uint256"
        },
        {
          "internalType": "uint256",
          "name": "remainingCap",
          "type": "uint256"
        }
      ],
      "name": "DailyWithdrawalCapExceeded",
      "type": "error"
    },
    {
      "inputs": [
        {
          "internalType": "uint256",
          "name": "amount",
          "type": "uint256"
        },
        {
          "internalType": "uint256",
          "name": "maximum",
          "type": "uint256"
        }
      ],
      "name": "DepositTooLarge",
      "type": "error"
    },
    {
      "inputs": [
        {
          "internalType": "uint256",
          "name": "amount",
          "type": "uint256"
        },
        {
          "internalType": "uint256",
          "name": "minimum",
          "type": "uint256"
        }
      ],
      "name": "DepositTooSmall",
      "type": "error"
    },
    {
      "inputs": [],
      "name": "DexRouterNotSet",
      "type": "error"
    },
    {
      "inputs": [
        {
          "internalType": "address",
          "name": "implementation",
          "type": "address"
        }
      ],
      "name": "ERC1967InvalidImplementation",
      "type": "error"
    },
    {
      "inputs": [],
      "name": "ERC1967NonPayable",
      "type": "error"
    },
    {
      "inputs": [],
      "name": "EmergencyModeRequired",
      "type": "error"
    },
    {
      "inputs": [],
      "name": "EmergencyWithdrawDisabled",
      "type": "error"
    },
    {
      "inputs": [],
      "name": "EnforcedPause",
      "type": "error"
    },
    {
      "inputs": [],
      "name": "ExpectedPause",
      "type": "error"
    },
    {
      "inputs": [],
      "name": "FailedCall",
      "type": "error"
    },
    {
      "inputs": [],
      "name": "FeeTooHigh",
      "type": "error"
    },
    {
      "inputs": [
        {
          "internalType": "uint256",
          "name": "amount",
          "type": "uint256"
        },
        {
          "internalType": "uint256",
          "name": "minimum",
          "type": "uint256"
        }
      ],
      "name": "FirstDepositTooSmall",
      "type": "error"
    },
    {
      "inputs": [],
      "name": "HedgeExecutorNotSet",
      "type": "error"
    },
    {
      "inputs": [],
      "name": "HedgeNotActive",
      "type": "error"
    },
    {
      "inputs": [
        {
          "internalType": "bytes32",
          "name": "hedgeId",
          "type": "bytes32"
        }
      ],
      "name": "HedgeNotOwnedByPool",
      "type": "error"
    },
    {
      "inputs": [
        {
          "internalType": "uint256",
          "name": "requested",
          "type": "uint256"
        },
        {
          "internalType": "uint256",
          "name": "available",
          "type": "uint256"
        }
      ],
      "name": "InsufficientLiquidity",
      "type": "error"
    },
    {
      "inputs": [],
      "name": "InsufficientPoolBalance",
      "type": "error"
    },
    {
      "inputs": [
        {
          "internalType": "uint256",
          "name": "requested",
          "type": "uint256"
        },
        {
          "internalType": "uint256",
          "name": "available",
          "type": "uint256"
        }
      ],
      "name": "InsufficientShares",
      "type": "error"
    },
    {
      "inputs": [
        {
          "internalType": "uint256",
          "name": "totalBps",
          "type": "uint256"
        }
      ],
      "name": "InvalidAllocation",
      "type": "error"
    },
    {
      "inputs": [],
      "name": "InvalidAssetIndex",
      "type": "error"
    },
    {
      "inputs": [],
      "name": "InvalidInitialization",
      "type": "error"
    },
    {
      "inputs": [],
      "name": "InvalidLeverage",
      "type": "error"
    },
    {
      "inputs": [],
      "name": "InvalidSwapPath",
      "type": "error"
    },
    {
      "inputs": [],
      "name": "MaxHedgeRatioExceeded",
      "type": "error"
    },
    {
      "inputs": [],
      "name": "MinSharesRequired",
      "type": "error"
    },
    {
      "inputs": [
        {
          "internalType": "uint8",
          "name": "assetIndex",
          "type": "uint8"
        },
        {
          "internalType": "int256",
          "name": "price",
          "type": "int256"
        }
      ],
      "name": "NegativePrice",
      "type": "error"
    },
    {
      "inputs": [],
      "name": "NotAMember",
      "type": "error"
    },
    {
      "inputs": [],
      "name": "NotInitializing",
      "type": "error"
    },
    {
      "inputs": [],
      "name": "NothingToRescue",
      "type": "error"
    },
    {
      "inputs": [
        {
          "internalType": "uint8",
          "name": "assetIndex",
          "type": "uint8"
        }
      ],
      "name": "OracleCallFailed",
      "type": "error"
    },
    {
      "inputs": [
        {
          "internalType": "uint256",
          "name": "nav",
          "type": "uint256"
        },
        {
          "internalType": "uint256",
          "name": "expectedMinNav",
          "type": "uint256"
        }
      ],
      "name": "PoolUndercollateralized",
      "type": "error"
    },
    {
      "inputs": [
        {
          "internalType": "uint8",
          "name": "assetIndex",
          "type": "uint8"
        }
      ],
      "name": "PriceFeedNotConfigured",
      "type": "error"
    },
    {
      "inputs": [
        {
          "internalType": "uint256",
          "name": "nextAllowedTime",
          "type": "uint256"
        }
      ],
      "name": "RebalanceCooldownActive",
      "type": "error"
    },
    {
      "inputs": [],
      "name": "ReentrancyGuardReentrantCall",
      "type": "error"
    },
    {
      "inputs": [],
      "name": "RescueFailed",
      "type": "error"
    },
    {
      "inputs": [
        {
          "internalType": "uint256",
          "name": "availableAfter",
          "type": "uint256"
        },
        {
          "internalType": "uint256",
          "name": "minReserve",
          "type": "uint256"
        }
      ],
      "name": "ReserveRatioBreached",
      "type": "error"
    },
    {
      "inputs": [
        {
          "internalType": "address",
          "name": "token",
          "type": "address"
        }
      ],
      "name": "SafeERC20FailedOperation",
      "type": "error"
    },
    {
      "inputs": [
        {
          "internalType": "uint256",
          "name": "currentPrice",
          "type": "uint256"
        },
        {
          "internalType": "uint256",
          "name": "minimumPrice",
          "type": "uint256"
        }
      ],
      "name": "SharePriceTooLow",
      "type": "error"
    },
    {
      "inputs": [
        {
          "internalType": "uint256",
          "name": "hedgeAmount",
          "type": "uint256"
        },
        {
          "internalType": "uint256",
          "name": "maxAllowed",
          "type": "uint256"
        }
      ],
      "name": "SingleHedgeTooLarge",
      "type": "error"
    },
    {
      "inputs": [
        {
          "internalType": "uint256",
          "name": "amount",
          "type": "uint256"
        },
        {
          "internalType": "uint256",
          "name": "maxBps",
          "type": "uint256"
        }
      ],
      "name": "SingleWithdrawalTooLarge",
      "type": "error"
    },
    {
      "inputs": [
        {
          "internalType": "uint256",
          "name": "amountOut",
          "type": "uint256"
        },
        {
          "internalType": "uint256",
          "name": "minAmountOut",
          "type": "uint256"
        }
      ],
      "name": "SlippageExceeded",
      "type": "error"
    },
    {
      "inputs": [
        {
          "internalType": "uint8",
          "name": "assetIndex",
          "type": "uint8"
        },
        {
          "internalType": "uint256",
          "name": "lastUpdate",
          "type": "uint256"
        },
        {
          "internalType": "uint256",
          "name": "threshold",
          "type": "uint256"
        }
      ],
      "name": "StalePriceData",
      "type": "error"
    },
    {
      "inputs": [
        {
          "internalType": "uint256",
          "name": "expected",
          "type": "uint256"
        },
        {
          "internalType": "uint256",
          "name": "received",
          "type": "uint256"
        }
      ],
      "name": "SwapSlippageExceeded",
      "type": "error"
    },
    {
      "inputs": [],
      "name": "ThresholdOutOfRange",
      "type": "error"
    },
    {
      "inputs": [],
      "name": "TransferFailed",
      "type": "error"
    },
    {
      "inputs": [],
      "name": "UUPSUnauthorizedCallContext",
      "type": "error"
    },
    {
      "inputs": [
        {
          "internalType": "bytes32",
          "name": "slot",
          "type": "bytes32"
        }
      ],
      "name": "UUPSUnsupportedProxiableUUID",
      "type": "error"
    },
    {
      "inputs": [],
      "name": "ZeroAddress",
      "type": "error"
    },
    {
      "inputs": [],
      "name": "ZeroAmount",
      "type": "error"
    },
    {
      "anonymous": false,
      "inputs": [
        {
          "indexed": true,
          "internalType": "uint8",
          "name": "assetIndex",
          "type": "uint8"
        },
        {
          "indexed": false,
          "internalType": "uint256",
          "name": "oldBps",
          "type": "uint256"
        },
        {
          "indexed": false,
          "internalType": "uint256",
          "name": "newBps",
          "type": "uint256"
        }
      ],
      "name": "AllocationUpdated",
      "type": "event"
    },
    {
      "anonymous": false,
      "inputs": [
        {
          "indexed": false,
          "internalType": "bool",
          "name": "enabled",
          "type": "bool"
        },
        {
          "indexed": false,
          "internalType": "uint256",
          "name": "riskThresholdBps",
          "type": "uint256"
        },
        {
          "indexed": false,
          "internalType": "uint256",
          "name": "maxHedgeRatioBps",
          "type": "uint256"
        },
        {
          "indexed": false,
          "internalType": "uint256",
          "name": "defaultLeverage",
          "type": "uint256"
        }
      ],
      "name": "AutoHedgeConfigUpdated",
      "type": "event"
    },
    {
      "anonymous": false,
      "inputs": [
        {
          "indexed": true,
          "internalType": "address",
          "name": "by",
          "type": "address"
        }
      ],
      "name": "CircuitBreakerReset",
      "type": "event"
    },
    {
      "anonymous": false,
      "inputs": [
        {
          "indexed": true,
          "internalType": "address",
          "name": "by",
          "type": "address"
        },
        {
          "indexed": false,
          "internalType": "string",
          "name": "reason",
          "type": "string"
        }
      ],
      "name": "CircuitBreakerTripped",
      "type": "event"
    },
    {
      "anonymous": false,
      "inputs": [
        {
          "indexed": false,
          "internalType": "uint256",
          "name": "newDay",
          "type": "uint256"
        },
        {
          "indexed": false,
          "internalType": "uint256",
          "name": "previousTotal",
          "type": "uint256"
        }
      ],
      "name": "DailyWithdrawalReset",
      "type": "event"
    },
    {
      "anonymous": false,
      "inputs": [
        {
          "indexed": true,
          "internalType": "address",
          "name": "member",
          "type": "address"
        },
        {
          "indexed": false,
          "internalType": "uint256",
          "name": "amountUSD",
          "type": "uint256"
        },
        {
          "indexed": false,
          "internalType": "uint256",
          "name": "sharesReceived",
          "type": "uint256"
        },
        {
          "indexed": false,
          "internalType": "uint256",
          "name": "sharePrice",
          "type": "uint256"
        },
        {
          "indexed": false,
          "internalType": "uint256",
          "name": "timestamp",
          "type": "uint256"
        }
      ],
      "name": "Deposited",
      "type": "event"
    },
    {
      "anonymous": false,
      "inputs": [
        {
          "indexed": false,
          "internalType": "uint256",
          "name": "managementFee",
          "type": "uint256"
        },
        {
          "indexed": false,
          "internalType": "uint256",
          "name": "performanceFee",
          "type": "uint256"
        },
        {
          "indexed": false,
          "internalType": "uint256",
          "name": "timestamp",
          "type": "uint256"
        }
      ],
      "name": "FeesCollected",
      "type": "event"
    },
    {
      "anonymous": false,
      "inputs": [
        {
          "indexed": true,
          "internalType": "address",
          "name": "treasury",
          "type": "address"
        },
        {
          "indexed": false,
          "internalType": "uint256",
          "name": "amount",
          "type": "uint256"
        },
        {
          "indexed": false,
          "internalType": "uint256",
          "name": "timestamp",
          "type": "uint256"
        }
      ],
      "name": "FeesWithdrawn",
      "type": "event"
    },
    {
      "anonymous": false,
      "inputs": [
        {
          "indexed": true,
          "internalType": "address",
          "name": "newExecutor",
          "type": "address"
        }
      ],
      "name": "HedgeExecutorSet",
      "type": "event"
    },
    {
      "anonymous": false,
      "inputs": [
        {
          "indexed": false,
          "internalType": "uint64",
          "name": "version",
          "type": "uint64"
        }
      ],
      "name": "Initialized",
      "type": "event"
    },
    {
      "anonymous": false,
      "inputs": [
        {
          "indexed": true,
          "internalType": "address",
          "name": "member",
          "type": "address"
        },
        {
          "indexed": false,
          "internalType": "uint256",
          "name": "timestamp",
          "type": "uint256"
        }
      ],
      "name": "MemberExited",
      "type": "event"
    },
    {
      "anonymous": false,
      "inputs": [
        {
          "indexed": true,
          "internalType": "address",
          "name": "member",
          "type": "address"
        },
        {
          "indexed": false,
          "internalType": "uint256",
          "name": "timestamp",
          "type": "uint256"
        }
      ],
      "name": "MemberJoined",
      "type": "event"
    },
    {
      "anonymous": false,
      "inputs": [
        {
          "indexed": false,
          "internalType": "address",
          "name": "account",
          "type": "address"
        }
      ],
      "name": "Paused",
      "type": "event"
    },
    {
      "anonymous": false,
      "inputs": [
        {
          "indexed": true,
          "internalType": "bytes32",
          "name": "hedgeId",
          "type": "bytes32"
        },
        {
          "indexed": false,
          "internalType": "int256",
          "name": "pnl",
          "type": "int256"
        },
        {
          "indexed": false,
          "internalType": "string",
          "name": "reason",
          "type": "string"
        }
      ],
      "name": "PoolHedgeClosed",
      "type": "event"
    },
    {
      "anonymous": false,
      "inputs": [
        {
          "indexed": true,
          "internalType": "bytes32",
          "name": "hedgeId",
          "type": "bytes32"
        },
        {
          "indexed": false,
          "internalType": "uint8",
          "name": "pairIndex",
          "type": "uint8"
        },
        {
          "indexed": false,
          "internalType": "uint256",
          "name": "collateralAmount",
          "type": "uint256"
        },
        {
          "indexed": false,
          "internalType": "uint256",
          "name": "leverage",
          "type": "uint256"
        },
        {
          "indexed": false,
          "internalType": "bool",
          "name": "isLong",
          "type": "bool"
        },
        {
          "indexed": false,
          "internalType": "string",
          "name": "reason",
          "type": "string"
        }
      ],
      "name": "PoolHedgeOpened",
      "type": "event"
    },
    {
      "anonymous": false,
      "inputs": [
        {
          "indexed": true,
          "internalType": "uint8",
          "name": "assetIndex",
          "type": "uint8"
        },
        {
          "indexed": true,
          "internalType": "address",
          "name": "priceFeed",
          "type": "address"
        }
      ],
      "name": "PriceFeedSet",
      "type": "event"
    },
    {
      "anonymous": false,
      "inputs": [
        {
          "indexed": true,
          "internalType": "uint8",
          "name": "assetIndex",
          "type": "uint8"
        },
        {
          "indexed": false,
          "internalType": "uint256",
          "name": "oldPrice",
          "type": "uint256"
        },
        {
          "indexed": false,
          "internalType": "uint256",
          "name": "newPrice",
          "type": "uint256"
        }
      ],
      "name": "PriceUpdated",
      "type": "event"
    },
    {
      "anonymous": false,
      "inputs": [
        {
          "indexed": true,
          "internalType": "uint8",
          "name": "assetIndex",
          "type": "uint8"
        },
        {
          "indexed": false,
          "internalType": "uint256",
          "name": "amountIn",
          "type": "uint256"
        },
        {
          "indexed": false,
          "internalType": "uint256",
          "name": "amountOut",
          "type": "uint256"
        },
        {
          "indexed": false,
          "internalType": "bool",
          "name": "isBuy",
          "type": "bool"
        },
        {
          "indexed": false,
          "internalType": "uint256",
          "name": "timestamp",
          "type": "uint256"
        }
      ],
      "name": "RebalanceTradeExecuted",
      "type": "event"
    },
    {
      "anonymous": false,
      "inputs": [
        {
          "indexed": true,
          "internalType": "address",
          "name": "executor",
          "type": "address"
        },
        {
          "indexed": false,
          "internalType": "uint256[4]",
          "name": "previousBps",
          "type": "uint256[4]"
        },
        {
          "indexed": false,
          "internalType": "uint256[4]",
          "name": "newBps",
          "type": "uint256[4]"
        },
        {
          "indexed": false,
          "internalType": "string",
          "name": "reasoning",
          "type": "string"
        },
        {
          "indexed": false,
          "internalType": "uint256",
          "name": "timestamp",
          "type": "uint256"
        }
      ],
      "name": "Rebalanced",
      "type": "event"
    },
    {
      "anonymous": false,
      "inputs": [
        {
          "indexed": true,
          "internalType": "bytes32",
          "name": "role",
          "type": "bytes32"
        },
        {
          "indexed": true,
          "internalType": "bytes32",
          "name": "previousAdminRole",
          "type": "bytes32"
        },
        {
          "indexed": true,
          "internalType": "bytes32",
          "name": "newAdminRole",
          "type": "bytes32"
        }
      ],
      "name": "RoleAdminChanged",
      "type": "event"
    },
    {
      "anonymous": false,
      "inputs": [
        {
          "indexed": true,
          "internalType": "bytes32",
          "name": "role",
          "type": "bytes32"
        },
        {
          "indexed": true,
          "internalType": "address",
          "name": "account",
          "type": "address"
        },
        {
          "indexed": true,
          "internalType": "address",
          "name": "sender",
          "type": "address"
        }
      ],
      "name": "RoleGranted",
      "type": "event"
    },
    {
      "anonymous": false,
      "inputs": [
        {
          "indexed": true,
          "internalType": "bytes32",
          "name": "role",
          "type": "bytes32"
        },
        {
          "indexed": true,
          "internalType": "address",
          "name": "account",
          "type": "address"
        },
        {
          "indexed": true,
          "internalType": "address",
          "name": "sender",
          "type": "address"
        }
      ],
      "name": "RoleRevoked",
      "type": "event"
    },
    {
      "anonymous": false,
      "inputs": [
        {
          "indexed": true,
          "internalType": "address",
          "name": "token",
          "type": "address"
        },
        {
          "indexed": false,
          "internalType": "uint256",
          "name": "amount",
          "type": "uint256"
        }
      ],
      "name": "TokensRescued",
      "type": "event"
    },
    {
      "anonymous": false,
      "inputs": [
        {
          "indexed": false,
          "internalType": "address",
          "name": "account",
          "type": "address"
        }
      ],
      "name": "Unpaused",
      "type": "event"
    },
    {
      "anonymous": false,
      "inputs": [
        {
          "indexed": true,
          "internalType": "address",
          "name": "implementation",
          "type": "address"
        }
      ],
      "name": "Upgraded",
      "type": "event"
    },
    {
      "anonymous": false,
      "inputs": [
        {
          "indexed": true,
          "internalType": "address",
          "name": "member",
          "type": "address"
        },
        {
          "indexed": false,
          "internalType": "uint256",
          "name": "sharesBurned",
          "type": "uint256"
        },
        {
          "indexed": false,
          "internalType": "uint256",
          "name": "amountUSD",
          "type": "uint256"
        },
        {
          "indexed": false,
          "internalType": "uint256",
          "name": "sharePrice",
          "type": "uint256"
        },
        {
          "indexed": false,
          "internalType": "uint256",
          "name": "timestamp",
          "type": "uint256"
        }
      ],
      "name": "Withdrawn",
      "type": "event"
    },
    {
      "inputs": [],
      "name": "AGENT_ROLE",
      "outputs": [
        {
          "internalType": "bytes32",
          "name": "",
          "type": "bytes32"
        }
      ],
      "stateMutability": "view",
      "type": "function"
    },
    {
      "inputs": [],
      "name": "ASSET_BTC",
      "outputs": [
        {
          "internalType": "uint8",
          "name": "",
          "type": "uint8"
        }
      ],
      "stateMutability": "view",
      "type": "function"
    },
    {
      "inputs": [],
      "name": "ASSET_CRO",
      "outputs": [
        {
          "internalType": "uint8",
          "name": "",
          "type": "uint8"
        }
      ],
      "stateMutability": "view",
      "type": "function"
    },
    {
      "inputs": [],
      "name": "ASSET_ETH",
      "outputs": [
        {
          "internalType": "uint8",
          "name": "",
          "type": "uint8"
        }
      ],
      "stateMutability": "view",
      "type": "function"
    },
    {
      "inputs": [],
      "name": "ASSET_SUI",
      "outputs": [
        {
          "internalType": "uint8",
          "name": "",
          "type": "uint8"
        }
      ],
      "stateMutability": "view",
      "type": "function"
    },
    {
      "inputs": [],
      "name": "BPS_DENOMINATOR",
      "outputs": [
        {
          "internalType": "uint256",
          "name": "",
          "type": "uint256"
        }
      ],
      "stateMutability": "view",
      "type": "function"
    },
    {
      "inputs": [],
      "name": "DAILY_HEDGE_CAP_BPS",
      "outputs": [
        {
          "internalType": "uint256",
          "name": "",
          "type": "uint256"
        }
      ],
      "stateMutability": "view",
      "type": "function"
    },
    {
      "inputs": [],
      "name": "DEFAULT_ADMIN_ROLE",
      "outputs": [
        {
          "internalType": "bytes32",
          "name": "",
          "type": "bytes32"
        }
      ],
      "stateMutability": "view",
      "type": "function"
    },
    {
      "inputs": [],
      "name": "DEFAULT_DAILY_WITHDRAWAL_CAP_BPS",
      "outputs": [
        {
          "internalType": "uint256",
          "name": "",
          "type": "uint256"
        }
      ],
      "stateMutability": "view",
      "type": "function"
    },
    {
      "inputs": [],
      "name": "DEFAULT_MAX_SINGLE_DEPOSIT",
      "outputs": [
        {
          "internalType": "uint256",
          "name": "",
          "type": "uint256"
        }
      ],
      "stateMutability": "view",
      "type": "function"
    },
    {
      "inputs": [],
      "name": "DEFAULT_MAX_SINGLE_WITHDRAWAL_BPS",
      "outputs": [
        {
          "internalType": "uint256",
          "name": "",
          "type": "uint256"
        }
      ],
      "stateMutability": "view",
      "type": "function"
    },
    {
      "inputs": [],
      "name": "FEE_MANAGER_ROLE",
      "outputs": [
        {
          "internalType": "bytes32",
          "name": "",
          "type": "bytes32"
        }
      ],
      "stateMutability": "view",
      "type": "function"
    },
    {
      "inputs": [],
      "name": "MAX_SINGLE_HEDGE_BPS",
      "outputs": [
        {
          "internalType": "uint256",
          "name": "",
          "type": "uint256"
        }
      ],
      "stateMutability": "view",
      "type": "function"
    },
    {
      "inputs": [],
      "name": "MIN_DEPOSIT",
      "outputs": [
        {
          "internalType": "uint256",
          "name": "",
          "type": "uint256"
        }
      ],
      "stateMutability": "view",
      "type": "function"
    },
    {
      "inputs": [],
      "name": "MIN_FIRST_DEPOSIT",
      "outputs": [
        {
          "internalType": "uint256",
          "name": "",
          "type": "uint256"
        }
      ],
      "stateMutability": "view",
      "type": "function"
    },
    {
      "inputs": [],
      "name": "MIN_RESERVE_RATIO_BPS",
      "outputs": [
        {
          "internalType": "uint256",
          "name": "",
          "type": "uint256"
        }
      ],
      "stateMutability": "view",
      "type": "function"
    },
    {
      "inputs": [],
      "name": "MIN_SHARES_FOR_WITHDRAWAL",
      "outputs": [
        {
          "internalType": "uint256",
          "name": "",
          "type": "uint256"
        }
      ],
      "stateMutability": "view",
      "type": "function"
    },
    {
      "inputs": [],
      "name": "MOONLANDER_ORACLE_FEE",
      "outputs": [
        {
          "internalType": "uint256",
          "name": "",
          "type": "uint256"
        }
      ],
      "stateMutability": "view",
      "type": "function"
    },
    {
      "inputs": [],
      "name": "NUM_ASSETS",
      "outputs": [
        {
          "internalType": "uint8",
          "name": "",
          "type": "uint8"
        }
      ],
      "stateMutability": "view",
      "type": "function"
    },
    {
      "inputs": [],
      "name": "PRECISION_FACTOR",
      "outputs": [
        {
          "internalType": "uint256",
          "name": "",
          "type": "uint256"
        }
      ],
      "stateMutability": "view",
      "type": "function"
    },
    {
      "inputs": [],
      "name": "REBALANCER_ROLE",
      "outputs": [
        {
          "internalType": "bytes32",
          "name": "",
          "type": "bytes32"
        }
      ],
      "stateMutability": "view",
      "type": "function"
    },
    {
      "inputs": [],
      "name": "SECONDS_PER_YEAR",
      "outputs": [
        {
          "internalType": "uint256",
          "name": "",
          "type": "uint256"
        }
      ],
      "stateMutability": "view",
      "type": "function"
    },
    {
      "inputs": [],
      "name": "SHARE_DECIMALS",
      "outputs": [
        {
          "internalType": "uint256",
          "name": "",
          "type": "uint256"
        }
      ],
      "stateMutability": "view",
      "type": "function"
    },
    {
      "inputs": [],
      "name": "UPGRADER_ROLE",
      "outputs": [
        {
          "internalType": "bytes32",
          "name": "",
          "type": "bytes32"
        }
      ],
      "stateMutability": "view",
      "type": "function"
    },
    {
      "inputs": [],
      "name": "UPGRADE_INTERFACE_VERSION",
      "outputs": [
        {
          "internalType": "string",
          "name": "",
          "type": "string"
        }
      ],
      "stateMutability": "view",
      "type": "function"
    },
    {
      "inputs": [],
      "name": "USDC_DECIMALS",
      "outputs": [
        {
          "internalType": "uint256",
          "name": "",
          "type": "uint256"
        }
      ],
      "stateMutability": "view",
      "type": "function"
    },
    {
      "inputs": [],
      "name": "VIRTUAL_ASSETS",
      "outputs": [
        {
          "internalType": "uint256",
          "name": "",
          "type": "uint256"
        }
      ],
      "stateMutability": "view",
      "type": "function"
    },
    {
      "inputs": [],
      "name": "VIRTUAL_SHARES",
      "outputs": [
        {
          "internalType": "uint256",
          "name": "",
          "type": "uint256"
        }
      ],
      "stateMutability": "view",
      "type": "function"
    },
    {
      "inputs": [],
      "name": "WAD",
      "outputs": [
        {
          "internalType": "uint256",
          "name": "",
          "type": "uint256"
        }
      ],
      "stateMutability": "view",
      "type": "function"
    },
    {
      "inputs": [],
      "name": "WHALE_THRESHOLD_BPS",
      "outputs": [
        {
          "internalType": "uint256",
          "name": "",
          "type": "uint256"
        }
      ],
      "stateMutability": "view",
      "type": "function"
    },
    {
      "inputs": [],
      "name": "accumulatedManagementFees",
      "outputs": [
        {
          "internalType": "uint256",
          "name": "",
          "type": "uint256"
        }
      ],
      "stateMutability": "view",
      "type": "function"
    },
    {
      "inputs": [],
      "name": "accumulatedPerformanceFees",
      "outputs": [
        {
          "internalType": "uint256",
          "name": "",
          "type": "uint256"
        }
      ],
      "stateMutability": "view",
      "type": "function"
    },
    {
      "inputs": [
        {
          "internalType": "uint256",
          "name": "",
          "type": "uint256"
        }
      ],
      "name": "activePoolHedges",
      "outputs": [
        {
          "internalType": "bytes32",
          "name": "",
          "type": "bytes32"
        }
      ],
      "stateMutability": "view",
      "type": "function"
    },
    {
      "inputs": [
        {
          "internalType": "address",
          "name": "recipient",
          "type": "address"
        }
      ],
      "name": "adminMigrateFunds",
      "outputs": [],
      "stateMutability": "nonpayable",
      "type": "function"
    },
    {
      "inputs": [],
      "name": "allTimeHighNavPerShare",
      "outputs": [
        {
          "internalType": "uint256",
          "name": "",
          "type": "uint256"
        }
      ],
      "stateMutability": "view",
      "type": "function"
    },
    {
      "inputs": [
        {
          "internalType": "uint256",
          "name": "",
          "type": "uint256"
        }
      ],
      "name": "assetBalances",
      "outputs": [
        {
          "internalType": "uint256",
          "name": "",
          "type": "uint256"
        }
      ],
      "stateMutability": "view",
      "type": "function"
    },
    {
      "inputs": [
        {
          "internalType": "uint256",
          "name": "",
          "type": "uint256"
        }
      ],
      "name": "assetDecimals",
      "outputs": [
        {
          "internalType": "uint8",
          "name": "",
          "type": "uint8"
        }
      ],
      "stateMutability": "view",
      "type": "function"
    },
    {
      "inputs": [
        {
          "internalType": "uint256",
          "name": "",
          "type": "uint256"
        }
      ],
      "name": "assetTokens",
      "outputs": [
        {
          "internalType": "contract IERC20",
          "name": "",
          "type": "address"
        }
      ],
      "stateMutability": "view",
      "type": "function"
    },
    {
      "inputs": [],
      "name": "autoHedgeConfig",
      "outputs": [
        {
          "internalType": "bool",
          "name": "enabled",
          "type": "bool"
        },
        {
          "internalType": "uint256",
          "name": "riskThresholdBps",
          "type": "uint256"
        },
        {
          "internalType": "uint256",
          "name": "maxHedgeRatioBps",
          "type": "uint256"
        },
        {
          "internalType": "uint256",
          "name": "defaultLeverage",
          "type": "uint256"
        },
        {
          "internalType": "uint256",
          "name": "cooldownSeconds",
          "type": "uint256"
        },
        {
          "internalType": "uint256",
          "name": "lastAutoHedgeTime",
          "type": "uint256"
        }
      ],
      "stateMutability": "view",
      "type": "function"
    },
    {
      "inputs": [],
      "name": "calculateTotalNAV",
      "outputs": [
        {
          "internalType": "uint256",
          "name": "nav",
          "type": "uint256"
        }
      ],
      "stateMutability": "view",
      "type": "function"
    },
    {
      "inputs": [],
      "name": "checkOracleHealth",
      "outputs": [
        {
          "internalType": "bool",
          "name": "healthy",
          "type": "bool"
        },
        {
          "internalType": "bool[4]",
          "name": "configured",
          "type": "bool[4]"
        },
        {
          "internalType": "bool[4]",
          "name": "working",
          "type": "bool[4]"
        },
        {
          "internalType": "bool[4]",
          "name": "fresh",
          "type": "bool[4]"
        }
      ],
      "stateMutability": "view",
      "type": "function"
    },
    {
      "inputs": [],
      "name": "circuitBreakerTripped",
      "outputs": [
        {
          "internalType": "bool",
          "name": "",
          "type": "bool"
        }
      ],
      "stateMutability": "view",
      "type": "function"
    },
    {
      "inputs": [
        {
          "internalType": "bytes32",
          "name": "hedgeId",
          "type": "bytes32"
        },
        {
          "internalType": "string",
          "name": "reason",
          "type": "string"
        }
      ],
      "name": "closePoolHedge",
      "outputs": [],
      "stateMutability": "payable",
      "type": "function"
    },
    {
      "inputs": [],
      "name": "collectFees",
      "outputs": [],
      "stateMutability": "nonpayable",
      "type": "function"
    },
    {
      "inputs": [],
      "name": "currentWithdrawalDay",
      "outputs": [
        {
          "internalType": "uint256",
          "name": "",
          "type": "uint256"
        }
      ],
      "stateMutability": "view",
      "type": "function"
    },
    {
      "inputs": [],
      "name": "dailyWithdrawalCapBps",
      "outputs": [
        {
          "internalType": "uint256",
          "name": "",
          "type": "uint256"
        }
      ],
      "stateMutability": "view",
      "type": "function"
    },
    {
      "inputs": [],
      "name": "dailyWithdrawalTotal",
      "outputs": [
        {
          "internalType": "uint256",
          "name": "",
          "type": "uint256"
        }
      ],
      "stateMutability": "view",
      "type": "function"
    },
    {
      "inputs": [
        {
          "internalType": "uint256",
          "name": "amount",
          "type": "uint256"
        }
      ],
      "name": "deposit",
      "outputs": [
        {
          "internalType": "uint256",
          "name": "shares",
          "type": "uint256"
        }
      ],
      "stateMutability": "nonpayable",
      "type": "function"
    },
    {
      "inputs": [],
      "name": "depositToken",
      "outputs": [
        {
          "internalType": "contract IERC20",
          "name": "",
          "type": "address"
        }
      ],
      "stateMutability": "view",
      "type": "function"
    },
    {
      "inputs": [],
      "name": "dexRouter",
      "outputs": [
        {
          "internalType": "address",
          "name": "",
          "type": "address"
        }
      ],
      "stateMutability": "view",
      "type": "function"
    },
    {
      "inputs": [],
      "name": "emergencyWithdraw",
      "outputs": [],
      "stateMutability": "nonpayable",
      "type": "function"
    },
    {
      "inputs": [],
      "name": "emergencyWithdrawEnabled",
      "outputs": [
        {
          "internalType": "bool",
          "name": "",
          "type": "bool"
        }
      ],
      "stateMutability": "view",
      "type": "function"
    },
    {
      "inputs": [
        {
          "internalType": "uint8",
          "name": "assetIndex",
          "type": "uint8"
        },
        {
          "internalType": "uint256",
          "name": "amount",
          "type": "uint256"
        },
        {
          "internalType": "bool",
          "name": "isBuy",
          "type": "bool"
        },
        {
          "internalType": "uint256",
          "name": "minAmountOut",
          "type": "uint256"
        }
      ],
      "name": "executeRebalanceTrade",
      "outputs": [],
      "stateMutability": "nonpayable",
      "type": "function"
    },
    {
      "inputs": [],
      "name": "getActivePoolHedges",
      "outputs": [
        {
          "internalType": "bytes32[]",
          "name": "",
          "type": "bytes32[]"
        }
      ],
      "stateMutability": "view",
      "type": "function"
    },
    {
      "inputs": [],
      "name": "getAutoHedgeConfig",
      "outputs": [
        {
          "internalType": "bool",
          "name": "enabled",
          "type": "bool"
        },
        {
          "internalType": "uint256",
          "name": "riskThresholdBps",
          "type": "uint256"
        },
        {
          "internalType": "uint256",
          "name": "maxHedgeRatioBps",
          "type": "uint256"
        },
        {
          "internalType": "uint256",
          "name": "defaultLeverage",
          "type": "uint256"
        },
        {
          "internalType": "uint256",
          "name": "cooldownSeconds",
          "type": "uint256"
        },
        {
          "internalType": "uint256",
          "name": "lastAutoHedgeTime",
          "type": "uint256"
        }
      ],
      "stateMutability": "view",
      "type": "function"
    },
    {
      "inputs": [],
      "name": "getMemberCount",
      "outputs": [
        {
          "internalType": "uint256",
          "name": "",
          "type": "uint256"
        }
      ],
      "stateMutability": "view",
      "type": "function"
    },
    {
      "inputs": [
        {
          "internalType": "address",
          "name": "member",
          "type": "address"
        }
      ],
      "name": "getMemberPosition",
      "outputs": [
        {
          "internalType": "uint256",
          "name": "shares",
          "type": "uint256"
        },
        {
          "internalType": "uint256",
          "name": "valueUSD",
          "type": "uint256"
        },
        {
          "internalType": "uint256",
          "name": "percentage",
          "type": "uint256"
        }
      ],
      "stateMutability": "view",
      "type": "function"
    },
    {
      "inputs": [],
      "name": "getNavPerShare",
      "outputs": [
        {
          "internalType": "uint256",
          "name": "",
          "type": "uint256"
        }
      ],
      "stateMutability": "view",
      "type": "function"
    },
    {
      "inputs": [],
      "name": "getOraclePrices",
      "outputs": [
        {
          "internalType": "uint256[4]",
          "name": "prices",
          "type": "uint256[4]"
        },
        {
          "internalType": "uint256[4]",
          "name": "timestamps",
          "type": "uint256[4]"
        }
      ],
      "stateMutability": "view",
      "type": "function"
    },
    {
      "inputs": [],
      "name": "getPoolStats",
      "outputs": [
        {
          "internalType": "uint256",
          "name": "_totalShares",
          "type": "uint256"
        },
        {
          "internalType": "uint256",
          "name": "_totalNAV",
          "type": "uint256"
        },
        {
          "internalType": "uint256",
          "name": "_memberCount",
          "type": "uint256"
        },
        {
          "internalType": "uint256",
          "name": "_sharePrice",
          "type": "uint256"
        },
        {
          "internalType": "uint256[4]",
          "name": "_allocations",
          "type": "uint256[4]"
        }
      ],
      "stateMutability": "view",
      "type": "function"
    },
    {
      "inputs": [],
      "name": "getRebalanceHistoryCount",
      "outputs": [
        {
          "internalType": "uint256",
          "name": "",
          "type": "uint256"
        }
      ],
      "stateMutability": "view",
      "type": "function"
    },
    {
      "inputs": [
        {
          "internalType": "bytes32",
          "name": "role",
          "type": "bytes32"
        }
      ],
      "name": "getRoleAdmin",
      "outputs": [
        {
          "internalType": "bytes32",
          "name": "",
          "type": "bytes32"
        }
      ],
      "stateMutability": "view",
      "type": "function"
    },
    {
      "inputs": [
        {
          "internalType": "uint8",
          "name": "assetIndex",
          "type": "uint8"
        },
        {
          "internalType": "uint256",
          "name": "amount",
          "type": "uint256"
        },
        {
          "internalType": "bool",
          "name": "isBuy",
          "type": "bool"
        }
      ],
      "name": "getSwapQuote",
      "outputs": [
        {
          "internalType": "uint256",
          "name": "expectedOut",
          "type": "uint256"
        }
      ],
      "stateMutability": "view",
      "type": "function"
    },
    {
      "inputs": [
        {
          "internalType": "bytes32",
          "name": "role",
          "type": "bytes32"
        },
        {
          "internalType": "address",
          "name": "account",
          "type": "address"
        }
      ],
      "name": "grantRole",
      "outputs": [],
      "stateMutability": "nonpayable",
      "type": "function"
    },
    {
      "inputs": [
        {
          "internalType": "bytes32",
          "name": "role",
          "type": "bytes32"
        },
        {
          "internalType": "address",
          "name": "account",
          "type": "address"
        }
      ],
      "name": "hasRole",
      "outputs": [
        {
          "internalType": "bool",
          "name": "",
          "type": "bool"
        }
      ],
      "stateMutability": "view",
      "type": "function"
    },
    {
      "inputs": [],
      "name": "healthCheck",
      "outputs": [
        {
          "internalType": "bool",
          "name": "isHealthy",
          "type": "bool"
        },
        {
          "internalType": "uint256",
          "name": "sharePrice",
          "type": "uint256"
        },
        {
          "internalType": "uint256",
          "name": "expectedMinNav",
          "type": "uint256"
        },
        {
          "internalType": "uint256",
          "name": "actualNav",
          "type": "uint256"
        },
        {
          "internalType": "int256",
          "name": "discrepancy",
          "type": "int256"
        }
      ],
      "stateMutability": "view",
      "type": "function"
    },
    {
      "inputs": [],
      "name": "hedgeExecutor",
      "outputs": [
        {
          "internalType": "address",
          "name": "",
          "type": "address"
        }
      ],
      "stateMutability": "view",
      "type": "function"
    },
    {
      "inputs": [
        {
          "internalType": "address",
          "name": "_depositToken",
          "type": "address"
        },
        {
          "internalType": "address[4]",
          "name": "_assetTokens",
          "type": "address[4]"
        },
        {
          "internalType": "address",
          "name": "_treasury",
          "type": "address"
        },
        {
          "internalType": "address",
          "name": "_admin",
          "type": "address"
        }
      ],
      "name": "initialize",
      "outputs": [],
      "stateMutability": "nonpayable",
      "type": "function"
    },
    {
      "inputs": [
        {
          "internalType": "address",
          "name": "",
          "type": "address"
        }
      ],
      "name": "isMember",
      "outputs": [
        {
          "internalType": "bool",
          "name": "",
          "type": "bool"
        }
      ],
      "stateMutability": "view",
      "type": "function"
    },
    {
      "inputs": [
        {
          "internalType": "bytes32",
          "name": "",
          "type": "bytes32"
        }
      ],
      "name": "isPoolHedge",
      "outputs": [
        {
          "internalType": "bool",
          "name": "",
          "type": "bool"
        }
      ],
      "stateMutability": "view",
      "type": "function"
    },
    {
      "inputs": [],
      "name": "lastFeeCollection",
      "outputs": [
        {
          "internalType": "uint256",
          "name": "",
          "type": "uint256"
        }
      ],
      "stateMutability": "view",
      "type": "function"
    },
    {
      "inputs": [],
      "name": "lastRebalanceTime",
      "outputs": [
        {
          "internalType": "uint256",
          "name": "",
          "type": "uint256"
        }
      ],
      "stateMutability": "view",
      "type": "function"
    },
    {
      "inputs": [],
      "name": "managementFeeBps",
      "outputs": [
        {
          "internalType": "uint256",
          "name": "",
          "type": "uint256"
        }
      ],
      "stateMutability": "view",
      "type": "function"
    },
    {
      "inputs": [],
      "name": "maxSingleDeposit",
      "outputs": [
        {
          "internalType": "uint256",
          "name": "",
          "type": "uint256"
        }
      ],
      "stateMutability": "view",
      "type": "function"
    },
    {
      "inputs": [],
      "name": "maxSingleWithdrawalBps",
      "outputs": [
        {
          "internalType": "uint256",
          "name": "",
          "type": "uint256"
        }
      ],
      "stateMutability": "view",
      "type": "function"
    },
    {
      "inputs": [
        {
          "internalType": "uint256",
          "name": "",
          "type": "uint256"
        }
      ],
      "name": "memberList",
      "outputs": [
        {
          "internalType": "address",
          "name": "",
          "type": "address"
        }
      ],
      "stateMutability": "view",
      "type": "function"
    },
    {
      "inputs": [
        {
          "internalType": "address",
          "name": "",
          "type": "address"
        }
      ],
      "name": "members",
      "outputs": [
        {
          "internalType": "uint256",
          "name": "shares",
          "type": "uint256"
        },
        {
          "internalType": "uint256",
          "name": "depositedUSD",
          "type": "uint256"
        },
        {
          "internalType": "uint256",
          "name": "withdrawnUSD",
          "type": "uint256"
        },
        {
          "internalType": "uint256",
          "name": "joinedAt",
          "type": "uint256"
        },
        {
          "internalType": "uint256",
          "name": "lastDepositAt",
          "type": "uint256"
        },
        {
          "internalType": "uint256",
          "name": "highWaterMark",
          "type": "uint256"
        }
      ],
      "stateMutability": "view",
      "type": "function"
    },
    {
      "inputs": [
        {
          "internalType": "uint8",
          "name": "pairIndex",
          "type": "uint8"
        },
        {
          "internalType": "uint256",
          "name": "collateralAmount",
          "type": "uint256"
        },
        {
          "internalType": "uint256",
          "name": "leverage",
          "type": "uint256"
        },
        {
          "internalType": "bool",
          "name": "isLong",
          "type": "bool"
        },
        {
          "internalType": "string",
          "name": "reason",
          "type": "string"
        }
      ],
      "name": "openPoolHedge",
      "outputs": [
        {
          "internalType": "bytes32",
          "name": "hedgeId",
          "type": "bytes32"
        }
      ],
      "stateMutability": "payable",
      "type": "function"
    },
    {
      "inputs": [],
      "name": "pause",
      "outputs": [],
      "stateMutability": "nonpayable",
      "type": "function"
    },
    {
      "inputs": [],
      "name": "paused",
      "outputs": [
        {
          "internalType": "bool",
          "name": "",
          "type": "bool"
        }
      ],
      "stateMutability": "view",
      "type": "function"
    },
    {
      "inputs": [],
      "name": "performanceFeeBps",
      "outputs": [
        {
          "internalType": "uint256",
          "name": "",
          "type": "uint256"
        }
      ],
      "stateMutability": "view",
      "type": "function"
    },
    {
      "inputs": [],
      "name": "priceStaleThreshold",
      "outputs": [
        {
          "internalType": "uint256",
          "name": "",
          "type": "uint256"
        }
      ],
      "stateMutability": "view",
      "type": "function"
    },
    {
      "inputs": [],
      "name": "proxiableUUID",
      "outputs": [
        {
          "internalType": "bytes32",
          "name": "",
          "type": "bytes32"
        }
      ],
      "stateMutability": "view",
      "type": "function"
    },
    {
      "inputs": [],
      "name": "pythOracle",
      "outputs": [
        {
          "internalType": "contract IPyth",
          "name": "",
          "type": "address"
        }
      ],
      "stateMutability": "view",
      "type": "function"
    },
    {
      "inputs": [
        {
          "internalType": "uint256",
          "name": "",
          "type": "uint256"
        }
      ],
      "name": "pythPriceIds",
      "outputs": [
        {
          "internalType": "bytes32",
          "name": "",
          "type": "bytes32"
        }
      ],
      "stateMutability": "view",
      "type": "function"
    },
    {
      "inputs": [],
      "name": "rebalanceCooldown",
      "outputs": [
        {
          "internalType": "uint256",
          "name": "",
          "type": "uint256"
        }
      ],
      "stateMutability": "view",
      "type": "function"
    },
    {
      "inputs": [
        {
          "internalType": "uint256",
          "name": "",
          "type": "uint256"
        }
      ],
      "name": "rebalanceHistory",
      "outputs": [
        {
          "internalType": "uint256",
          "name": "timestamp",
          "type": "uint256"
        },
        {
          "internalType": "string",
          "name": "reasoning",
          "type": "string"
        },
        {
          "internalType": "address",
          "name": "executor",
          "type": "address"
        }
      ],
      "stateMutability": "view",
      "type": "function"
    },
    {
      "inputs": [
        {
          "internalType": "bytes32",
          "name": "role",
          "type": "bytes32"
        },
        {
          "internalType": "address",
          "name": "callerConfirmation",
          "type": "address"
        }
      ],
      "name": "renounceRole",
      "outputs": [],
      "stateMutability": "nonpayable",
      "type": "function"
    },
    {
      "inputs": [],
      "name": "rescueETH",
      "outputs": [],
      "stateMutability": "nonpayable",
      "type": "function"
    },
    {
      "inputs": [
        {
          "internalType": "address",
          "name": "token",
          "type": "address"
        }
      ],
      "name": "rescueToken",
      "outputs": [],
      "stateMutability": "nonpayable",
      "type": "function"
    },
    {
      "inputs": [
        {
          "internalType": "uint8",
          "name": "assetIndex",
          "type": "uint8"
        }
      ],
      "name": "resetAssetBalance",
      "outputs": [],
      "stateMutability": "nonpayable",
      "type": "function"
    },
    {
      "inputs": [],
      "name": "resetCircuitBreaker",
      "outputs": [],
      "stateMutability": "nonpayable",
      "type": "function"
    },
    {
      "inputs": [
        {
          "internalType": "bytes32",
          "name": "role",
          "type": "bytes32"
        },
        {
          "internalType": "address",
          "name": "account",
          "type": "address"
        }
      ],
      "name": "revokeRole",
      "outputs": [],
      "stateMutability": "nonpayable",
      "type": "function"
    },
    {
      "inputs": [
        {
          "internalType": "bytes32[4]",
          "name": "priceIds",
          "type": "bytes32[4]"
        }
      ],
      "name": "setAllPriceIds",
      "outputs": [],
      "stateMutability": "nonpayable",
      "type": "function"
    },
    {
      "inputs": [
        {
          "internalType": "uint8",
          "name": "assetIndex",
          "type": "uint8"
        },
        {
          "internalType": "address",
          "name": "token",
          "type": "address"
        }
      ],
      "name": "setAssetToken",
      "outputs": [],
      "stateMutability": "nonpayable",
      "type": "function"
    },
    {
      "inputs": [
        {
          "internalType": "bool",
          "name": "_enabled",
          "type": "bool"
        },
        {
          "internalType": "uint256",
          "name": "_riskThresholdBps",
          "type": "uint256"
        },
        {
          "internalType": "uint256",
          "name": "_maxHedgeRatioBps",
          "type": "uint256"
        },
        {
          "internalType": "uint256",
          "name": "_defaultLeverage",
          "type": "uint256"
        },
        {
          "internalType": "uint256",
          "name": "_cooldownSeconds",
          "type": "uint256"
        }
      ],
      "name": "setAutoHedgeConfig",
      "outputs": [],
      "stateMutability": "nonpayable",
      "type": "function"
    },
    {
      "inputs": [
        {
          "internalType": "uint256",
          "name": "_bps",
          "type": "uint256"
        }
      ],
      "name": "setDailyWithdrawalCapBps",
      "outputs": [],
      "stateMutability": "nonpayable",
      "type": "function"
    },
    {
      "inputs": [
        {
          "internalType": "address",
          "name": "_router",
          "type": "address"
        }
      ],
      "name": "setDexRouter",
      "outputs": [],
      "stateMutability": "nonpayable",
      "type": "function"
    },
    {
      "inputs": [
        {
          "internalType": "bool",
          "name": "_enabled",
          "type": "bool"
        }
      ],
      "name": "setEmergencyWithdraw",
      "outputs": [],
      "stateMutability": "nonpayable",
      "type": "function"
    },
    {
      "inputs": [
        {
          "internalType": "address",
          "name": "_hedgeExecutor",
          "type": "address"
        }
      ],
      "name": "setHedgeExecutor",
      "outputs": [],
      "stateMutability": "nonpayable",
      "type": "function"
    },
    {
      "inputs": [
        {
          "internalType": "uint256",
          "name": "_feeBps",
          "type": "uint256"
        }
      ],
      "name": "setManagementFee",
      "outputs": [],
      "stateMutability": "nonpayable",
      "type": "function"
    },
    {
      "inputs": [
        {
          "internalType": "uint256",
          "name": "_max",
          "type": "uint256"
        }
      ],
      "name": "setMaxSingleDeposit",
      "outputs": [],
      "stateMutability": "nonpayable",
      "type": "function"
    },
    {
      "inputs": [
        {
          "internalType": "uint256",
          "name": "_bps",
          "type": "uint256"
        }
      ],
      "name": "setMaxSingleWithdrawalBps",
      "outputs": [],
      "stateMutability": "nonpayable",
      "type": "function"
    },
    {
      "inputs": [
        {
          "internalType": "uint256",
          "name": "_feeBps",
          "type": "uint256"
        }
      ],
      "name": "setPerformanceFee",
      "outputs": [],
      "stateMutability": "nonpayable",
      "type": "function"
    },
    {
      "inputs": [
        {
          "internalType": "uint8",
          "name": "assetIndex",
          "type": "uint8"
        },
        {
          "internalType": "bytes32",
          "name": "priceId",
          "type": "bytes32"
        }
      ],
      "name": "setPriceId",
      "outputs": [],
      "stateMutability": "nonpayable",
      "type": "function"
    },
    {
      "inputs": [
        {
          "internalType": "uint256",
          "name": "threshold",
          "type": "uint256"
        }
      ],
      "name": "setPriceStaleThreshold",
      "outputs": [],
      "stateMutability": "nonpayable",
      "type": "function"
    },
    {
      "inputs": [
        {
          "internalType": "address",
          "name": "_pythOracle",
          "type": "address"
        }
      ],
      "name": "setPythOracle",
      "outputs": [],
      "stateMutability": "nonpayable",
      "type": "function"
    },
    {
      "inputs": [
        {
          "internalType": "uint256",
          "name": "_cooldown",
          "type": "uint256"
        }
      ],
      "name": "setRebalanceCooldown",
      "outputs": [],
      "stateMutability": "nonpayable",
      "type": "function"
    },
    {
      "inputs": [
        {
          "internalType": "uint256[4]",
          "name": "newAllocationBps",
          "type": "uint256[4]"
        },
        {
          "internalType": "string",
          "name": "reasoning",
          "type": "string"
        }
      ],
      "name": "setTargetAllocation",
      "outputs": [],
      "stateMutability": "nonpayable",
      "type": "function"
    },
    {
      "inputs": [
        {
          "internalType": "address",
          "name": "_treasury",
          "type": "address"
        }
      ],
      "name": "setTreasury",
      "outputs": [],
      "stateMutability": "nonpayable",
      "type": "function"
    },
    {
      "inputs": [],
      "name": "shouldAutoHedge",
      "outputs": [
        {
          "internalType": "uint8",
          "name": "status",
          "type": "uint8"
        }
      ],
      "stateMutability": "view",
      "type": "function"
    },
    {
      "inputs": [
        {
          "internalType": "bytes4",
          "name": "interfaceId",
          "type": "bytes4"
        }
      ],
      "name": "supportsInterface",
      "outputs": [
        {
          "internalType": "bool",
          "name": "",
          "type": "bool"
        }
      ],
      "stateMutability": "view",
      "type": "function"
    },
    {
      "inputs": [
        {
          "internalType": "uint256",
          "name": "",
          "type": "uint256"
        }
      ],
      "name": "targetAllocationBps",
      "outputs": [
        {
          "internalType": "uint256",
          "name": "",
          "type": "uint256"
        }
      ],
      "stateMutability": "view",
      "type": "function"
    },
    {
      "inputs": [],
      "name": "totalDeposited",
      "outputs": [
        {
          "internalType": "uint256",
          "name": "",
          "type": "uint256"
        }
      ],
      "stateMutability": "view",
      "type": "function"
    },
    {
      "inputs": [],
      "name": "totalHedgedValue",
      "outputs": [
        {
          "internalType": "uint256",
          "name": "",
          "type": "uint256"
        }
      ],
      "stateMutability": "view",
      "type": "function"
    },
    {
      "inputs": [],
      "name": "totalShares",
      "outputs": [
        {
          "internalType": "uint256",
          "name": "",
          "type": "uint256"
        }
      ],
      "stateMutability": "view",
      "type": "function"
    },
    {
      "inputs": [],
      "name": "totalWithdrawn",
      "outputs": [
        {
          "internalType": "uint256",
          "name": "",
          "type": "uint256"
        }
      ],
      "stateMutability": "view",
      "type": "function"
    },
    {
      "inputs": [],
      "name": "treasury",
      "outputs": [
        {
          "internalType": "address",
          "name": "",
          "type": "address"
        }
      ],
      "stateMutability": "view",
      "type": "function"
    },
    {
      "inputs": [
        {
          "internalType": "string",
          "name": "reason",
          "type": "string"
        }
      ],
      "name": "tripCircuitBreaker",
      "outputs": [],
      "stateMutability": "nonpayable",
      "type": "function"
    },
    {
      "inputs": [],
      "name": "unpause",
      "outputs": [],
      "stateMutability": "nonpayable",
      "type": "function"
    },
    {
      "inputs": [
        {
          "internalType": "address",
          "name": "newImplementation",
          "type": "address"
        },
        {
          "internalType": "bytes",
          "name": "data",
          "type": "bytes"
        }
      ],
      "name": "upgradeToAndCall",
      "outputs": [],
      "stateMutability": "payable",
      "type": "function"
    },
    {
      "inputs": [
        {
          "internalType": "uint256",
          "name": "sharesToBurn",
          "type": "uint256"
        }
      ],
      "name": "withdraw",
      "outputs": [
        {
          "internalType": "uint256",
          "name": "amountUSD",
          "type": "uint256"
        }
      ],
      "stateMutability": "nonpayable",
      "type": "function"
    },
    {
      "inputs": [
        {
          "internalType": "uint256",
          "name": "sharesToBurn",
          "type": "uint256"
        },
        {
          "internalType": "uint256",
          "name": "minAmountOut",
          "type": "uint256"
        }
      ],
      "name": "withdraw",
      "outputs": [
        {
          "internalType": "uint256",
          "name": "amountUSD",
          "type": "uint256"
        }
      ],
      "stateMutability": "nonpayable",
      "type": "function"
    },
    {
      "inputs": [],
      "name": "withdrawFees",
      "outputs": [],
      "stateMutability": "nonpayable",
      "type": "function"
    },
    {
      "stateMutability": "payable",
      "type": "receive"
    }
  ],
  "bytecode": "0x60a08060405234620000d157306080527ff0c57e16840df040f15088dc2f81fe391c3923bec73e23a9662efc9c229c6a009081549060ff8260401c16620000c257506001600160401b036002600160401b0319828216016200007c575b604051615de99081620000d782396080518181816125800152612a0a0152f35b6001600160401b031990911681179091556040519081527fc7f505b2f371ae2175ee4913f4499e1f2633a7b5936321eed1cdaeb6115181d290602090a13880806200005c565b63f92ee8a960e01b8152600490fd5b600080fdfe608080604052600436101561001d575b50361561001b57600080fd5b005b600090813560e01c90816301ffc9a7146143165750806305db2f41146142ed578063068ff192146142d05780630758d924146142a757806308238a0b1461428557806308ae4b0c1461421457806314cb49f714613eea57806317a9e19814613ecc57806318531d7714613ea957806318bb59cd14613e8c5780631a0c654714613e705780631c95e73d14613e2057806320800a0014613d9757806322459e1814613d6e578063248a9ca314613d345780632bbf9bb214613d165780632c64ad3014613cde5780632e1a7d4d14613a185780632f2ff15d146139cd57806331c14d111461399c57806335e154601461396f57806336568abe14613927578063380f20eb146135d35780633813c35a146135b55780633a98ef39146135975780633aa1281c146134035780633daef0f9146133665780633f4ba83a146132ee578063441a3e7014612fbf5780634460d3cf14612e95578063448f440214612e5c5780634610b2d914612d5e578063476343ee14612d35578063490b48f814612d0c5780634b31971314612cee5780634c39ad4814612be35780634f1ef286146129b957806352c0d48d146125d857806352d1902d1461256d5780635747e69f1461254a57806359f30e4d146125275780635c975abb146124f75780635d19eb1e146121a457806361d027b31461217b578063622bd1181461213357806367ae9c1f1461206157806369548f86146120345780636a146024146119675780636c4c2d56146120165780636fecd1c014611ff957806370897b2314611fcd578063711fba7114611b945780637176d53c14611b7657806373bacc5b14611b3f578063740ae2f314611ad7578063773fd60d14611ab9578063780320c214611a9b57806379c0f16214611a7e5780637ba1f36b14611a615780637dbc3c9814611a425780637e2b5ed114611a1557806381ca52cf146119f25780638456cb591461198a57806387760c611461196c57806388c47f681461196757806389ad3e01146118d15780638b598099146118a25780638eade321146118845780638fbcbbb51461185757806391d14854146117fe578063996608e9146117e0578063997072f7146117c25780639df2e99b1461176a578063a217fddf14610838578063a230c5241461172b578063a48a0e161461170f578063aa2d18cf146116f4578063abd894b0146116d1578063ace6c054146116ae578063ad3cb1cc14611652578063b252720b1461158a578063b307fc6d14611546578063b3de272d14611528578063b66084091461150a578063b67b0721146114ee578063b6b55f2514611169578063b9d4e8791461114b578063bbb85188146110e4578063bc84008814611030578063c1419def14611014578063c305b88b14610f11578063c7dd6f0714610edc578063c879657214610eb8578063c89039c514610e91578063c93a226714610e74578063ccd34cd514610e54578063d547741f14610e05578063d5d36b6614610dc9578063d853365f14610dad578063d985e8fb14610d91578063d9ca21d514610d73578063db2e21bc14610b82578063dc7224ff14610a64578063dc8520cf14610a44578063de5f8d93146109f9578063dff0553c146109db578063e1171316146109b9578063e129c16f1461092d578063e1a4521814610910578063e1e158a5146108f2578063e276890814610873578063e6a69ab814610854578063ef3da40a14610838578063f0f44260146107de578063f20e4b50146106f4578063f5349c95146106d1578063f5d6ac90146106a8578063f72c0d8b1461067f578063f72f863b1461063a578063f95975f214610614578063fb810976146105f6578063fe56e232146105b8578063ff50abdc1461059a5763ffc7ce1f0361000f57346105975780600319360112610597576020601754604051908152f35b80fd5b50346105975780600319360112610597576020601254604051908152f35b5034610597576020366003190112610597576004356105d5615191565b6101f481116105e45760155580f35b60405163cd4e616760e01b8152600490fd5b50346105975780600319360112610597576020601454604051908152f35b5034610597578060031936011261059757602061062f614d95565b60ff60405191168152f35b50346105975760203660031901126105975761065461436b565b61065c615113565b601c80546001600160a01b0319166001600160a01b039290921691909117905580f35b50346105975780600319360112610597576020604051600080516020615b948339815191528152f35b5034610597578060031936011261059757601d546040516001600160a01b039091168152602090f35b5034610597576020366003190112610597576106eb615113565b60043560335580f35b503461059757806003193601126105975760405161071181614506565b60803682376040519061072382614506565b6080368337825b60ff811660048110156107bd5760048210156107a9578160019160ff93601e0154610758575b50011661072a565b61076182615312565b93919290508061079d575b610778575b5050610750565b61079491858060401b031661078d828961468e565b528761468e565b52388080610771565b50888260070b1361076c565b634e487b7160e01b85526032600452602485fd5b610100836107dc866107d2604051809461462a565b608083019061462a565bf35b5034610597576020366003190112610597576107f861436b565b610800615113565b6001600160a01b0316801561082657601a80546001600160a01b03191691909117905580f35b60405163d92e233d60e01b8152600490fd5b5034610597578060031936011261059757602090604051908152f35b503461059757806003193601126105975760206040516301e133808152f35b50346105975760203660031901126105975761088d61436b565b610895615113565b6001600160a01b0381169081156108265760258054610100600160a81b03191660089290921b610100600160a81b03169190911790557f0a0185855ceb5066efb26cb1971e677fa6ceac9df836129012653c71b3ff78558280a280f35b50346105975780600319360112610597576020604051629896808152f35b503461059757806003193601126105975760206040516127108152f35b5034610597576020366003190112610597576004356001600160401b0381116109b5577fa7938197d4630917fa523450d6c043caf7458abf26acf25f4cde564aafea80ff6109826109af9236906004016143ef565b929061098c615113565b600160ff196031541617603155604051918291602083523395602084019161499c565b0390a280f35b5080fd5b5034610597578060031936011261059757602060405166038d7ea4c680008152f35b50346105975780600319360112610597576020601b54604051908152f35b5034610597578060031936011261059757610a12615113565b60ff1960315416603155337f07663ee3f7c1099057fc9fc555efb675b77fe234386ec977b12f15d5f24fd0308280a280f35b5034610597578060031936011261059757602060405164174876e8008152f35b5034610597576020806003193601126109b557610a7f61436b565b90610a88615113565b610a90615234565b6001600160a01b0390828216156108265760ff6025541615610b70578184541691604051936370a0823160e01b85523060048601528285602481875afa948515610b65578695610b31575b508415610b205784610afc91600080516020615d1483398151915295615460565b8460115584541692604051908152a26001600080516020615cd48339815191525580f35b604051620f6b2160e41b8152600490fd5b9094508281813d8311610b5e575b610b49818361453c565b81010312610b5957519338610adb565b600080fd5b503d610b3f565b6040513d88823e3d90fd5b60405163f594e0fb60e01b8152600490fd5b5034610597578060031936011261059757610b9b615234565b60ff806025541615610d6157338252602090600e825260408320908154908115610d4f5760115485546040516370a0823160e01b81523060048201526024946001600160a01b0393909290919084169088818881855afa8015610d445783908b90610d13575b610c0c925085615a19565b80610d01575b505090879594939291865b600485821610610c7f57505050505050610c3a81546011546147da565b60115555338252601081526040822060ff198154169055600080516020615b34833981519152604051914283523392a26001600080516020615cd48339815191525580f35b90919293949596506004811015610cee576001818587938301541680610cb0575b5001169088969594939291610c1d565b81600a0190610cc186835489615a19565b80610cce575b5050610ca0565b610cdd81610ce4933390615460565b82546147da565b9055388080610cc7565b634e487b7160e01b895260326004528589fd5b610d0c913390615460565b3880610c12565b50508881813d8311610d3d575b610d2a818361453c565b81010312610b595782610c0c9151610c01565b503d610d20565b6040513d8c823e3d90fd5b6040516305031d1160e31b8152600490fd5b60405163579d174160e11b8152600490fd5b50346105975780600319360112610597576020602454604051908152f35b5034610597578060031936011261059757602060405160018152f35b5034610597578060031936011261059757602060405160128152f35b50346105975760203660031901126105975760043590600482101561059757602060ff610df584614652565b9190546040519260031b1c168152f35b503461059757604036600319011261059757610e50600435610e25614381565b90808452600080516020615c74833981519152602052610e4b6001604086200154615201565b61528f565b5080f35b5034610597578060031936011261059757602060405164e8d4a510008152f35b503461059757806003193601126105975760206040516103e88152f35b5034610597578060031936011261059757546040516001600160a01b039091168152602090f35b5034610597578060031936011261059757610ed1615191565b610ed96156ac565b80f35b503461059757602036600319011261059757610ef66143e0565b610efe615113565b60ff801960255416911515161760255580f35b50346105975760a036600319011261059757610f2b6143e0565b6024359060843590606435604435610f41615159565b60028210801561100a575b610ff8576113888111610fe6577ffcb0ec794bab03d7317e7af90ef5cb175d33296ef26c3b0db978649fd8bc445b94608094602d5460a060405196610f90886144eb565b1515968781528460208201528560408201528660608201528389820152015260ff196028541660ff8616176028558160295582602a5583602b55602c55604051938452602084015260408301526060820152a180f35b604051636ccf2d6560e11b8152600490fd5b604051633fe89cb960e11b8152600490fd5b50600a8211610f4c565b5034610597578060031936011261059757602060405160068152f35b50346105975760203660031901126105975761104a6143c1565b611052615113565b60ff908082168083036110a0575050815b60048282161061107257505080f35b600481101561108c576000600a8201556001018116611063565b634e487b7160e01b83526032600452602483fd5b600491925010156110d25760048110156110be57600090600a015580f35b634e487b7160e01b82526032600452602482fd5b60405163ae413e0760e01b8152600490fd5b5034610597578060031936011261059757608060405161110381614506565b3690376101006011546107dc611117614bca565b600f54611122615679565b9061112b614b94565b92604051958652602086015260408501526060840152608083019061462a565b50346105975780600319360112610597576020601654604051908152f35b5034610597576020908160031936011261059757600435611188615234565b611190615264565b60ff603154166114d9576032548082116114bb5750601180541580806114ae575b61148b576298968080841061146d575015611453575b6111cf6156ac565b6111d7614bca565b620f4240810180911161143f578154670de0b6b3a7640000810180911161142b57906112039184615a19565b9266038d7ea4c6800084106114195780546040516323b872dd60e01b87820152336024820152306044820152606480820186905281526001600160a01b039160a08201919083166001600160401b0383118284101761140357611268926040526157f2565b338252600e865260408220916010875260408120805460ff81161561136b575b505050506112978482546149bd565b8155600181016112a88482546149bd565b90556004429101556112bb8382546149bd565b90556112c9816012546149bd565b6012556112d4615679565b620dbba080821061134d5750507fe3b53cd1a44fbf11535e145d80b8ef1ed6d57a73bf5daa7e939b6b01657d654961133061130d615679565b604080519485526020850186905284015242606084015233929081906080820190565b0390a26001600080516020615cd483398151915255604051908152f35b6044925060405191636f393ebf60e11b835260048301526024820152fd5b60ff19166001179055600f5490600160401b8210156113ef57508060016113959201600f55614477565b819291549060031b9133831b921b19161790554260038201556113b6615679565b60058201556040514281527f7f3b9effe05cfb4f31f854004de03199fd03fe56bf38a48b2aa9a9f4402d6e23863392a238808080611288565b634e487b7160e01b81526041600452602490fd5b634e487b7160e01b600052604160045260246000fd5b60405163d6d5f12d60e01b8152600490fd5b634e487b7160e01b85526004839052602485fd5b634e487b7160e01b84526004829052602484fd5b61145b615679565b620dbba080821061134d5750506111c7565b836044916040519163253bf97d60e11b835260048301526024820152fd5b604051639774419760e01b8152600481018490526305f5e1006024820152604490fd5b506305f5e10083106111b1565b6044925060405191630f7b656760e41b835260048301526024820152fd5b604051600162fc891960e01b03198152600490fd5b5034610597578060031936011261059757602060405160028152f35b50346105975780600319360112610597576020604051620f42408152f35b50346105975780600319360112610597576020602354604051908152f35b50346105975760203660031901126105975760043590600f5482101561059757602061157183614477565b905460405160039290921b1c6001600160a01b03168152f35b503461059757806003193601126105975760a0906115a6614bca565b6115ae615679565b916115be601754601854906149bd565b601254601354926115cf83856149bd565b82111561164857506115e9926115e4916147da565b6147da565b905b81811061161f576115fc82826147da565b916001935b60405194151585526020850152604084015260608301526080820152f35b61163161162c82846147da565b614d84565b916064810461164083836147da565b111593611601565b92505050906115eb565b503461059757806003193601126105975760408051908101906001600160401b03821181831017611403576116aa9160405260058152640352e302e360dc1b602082015260405191829160208352602083019061455f565b0390f35b5034610597576020366003190112610597576116c8615113565b60043560345580f35b503461059757806003193601126105975760206116ec615679565b604051908152f35b503461059757806003193601126105975760206116ec614bca565b5034610597578060031936011261059757602060405160038152f35b50346105975760203660031901126105975760209060ff906040906001600160a01b0361175661436b565b168152601084522054166040519015158152f35b5034610597576040366003190112610597576117846143c1565b9061178d615113565b60ff821660048110156110d25760048310156110be57819260243590601e0155600080516020615b548339815191528280a380f35b50346105975780600319360112610597576020600f54604051908152f35b50346105975780600319360112610597576020601854604051908152f35b503461059757604036600319011261059757604061181a614381565b916004358152600080516020615c74833981519152602052209060018060a01b0316600052602052602060ff604060002054166040519015158152f35b50346105975760203660031901126105975760043560048110156109b557602090601e0154604051908152f35b50346105975780600319360112610597576020602e54604051908152f35b50346105975760203660031901126105975760ff60406020926004358152602784522054166040519015158152f35b5034610597578060031936011261059757604051809160265490818352602080930180926026835284832090835b818110611953575050508461191591038561453c565b60405193838594850191818652518092526040850193925b82811061193c57505050500390f35b83518552869550938101939281019260010161192d565b8254845292860192600192830192016118ff565b614607565b50346105975780600319360112610597576020603454604051908152f35b50346105975780600319360112610597576119a3615113565b6119ab615264565b600080516020615c94833981519152600160ff198254161790557f62e78cea01bee320cd4e420270b5ea74000d11b0c9f74754ebdbfc544b05a2586020604051338152a180f35b503461059757602036600319011261059757611a0c615113565b60043560235580f35b50346105975760203660031901126105975760043560048110156109b55760209060060154604051908152f35b503461059757806003193601126105975760206040516305f5e1008152f35b503461059757806003193601126105975760206040516107d08152f35b503461059757806003193601126105975760206040516109c48152f35b50346105975780600319360112610597576020602254604051908152f35b50346105975780600319360112610597576020603054604051908152f35b5034610597578060031936011261059757604051611af4816144eb565b60ff6028541615158082526116aa60a060295493846020820152602a54806040830152602b5490816060840152602c5492836080820152602d54948591015260405196879687614397565b50346105975760203660031901126105975760043560048110156109b557600101546040516001600160a01b039091168152602090f35b50346105975780600319360112610597576020603354604051908152f35b50346105975760a0366003190112610597576084366084116109b5576084356001600160401b038111611fc957611bcf9036906004016143ef565b611bd76151c9565b611bdf615264565b60245460235490611bf082826149bd565b4210611fa8575050839284935b60ff85166004811015611c2b57611c2260ff92611c1b60019361467c565b35906149bd565b95011693611bfd565b508386916127108103611f905750611c41614b94565b90825b60ff81166004811015611cd05760048210156107a9578160019160ff9360060190815490611c718161467c565b358203611c83575b5050500116611c44565b807f3e280d6d14916085928e6fda54f9685de6743b01338ba2d3df076df0f732b7ba6040611cc594611cb48461467c565b3582519182526020820152a261467c565b359055888080611c79565b505060405185908560a082016001600160401b0381118382101761140357604052428252602082019085825260405190611d0982614506565b6004825b828210611f80575050506040830152611d273684866145ba565b6060830152336080830152601b54600160401b811015611f6c57806001611d519201601b55614492565b919091611f58578251825551865b60048110611f425750506040820151865b60048110611f2b5750506060820151805160098301916001600160401b038211611f1757611d9e83546144b1565b601f8111611ed1575b50602090601f8311600114611e54579282600a93611e38989693600080516020615b148339815191529a98968d92611e49575b50508160011b916000199060031b1c19161790555b0190608060018060a01b039101511660018060a01b03198254161790554260245560405194611e21866101409261462a565b60806004818801378061010087015285019161499c565b91426101208201528033930390a280f35b015190508c80611dda565b838a5260208a209190601f1984168b5b818110611eb9575093611e38989693600080516020615b148339815191529a98969360019383600a9810611ea0575b505050811b019055611def565b015160001960f88460031b161c191690558c8080611e93565b92936020600181928786015181550195019301611e64565b838a5260208a20601f840160051c81019160208510611f0d575b601f0160051c01905b818110611f015750611da7565b60008155600101611ef4565b9091508190611eeb565b634e487b7160e01b89526041600452602489fd5b600190602083519301926005828601015501611d70565b6001906020835193019282828601015501611d5f565b634e487b7160e01b87526004879052602487fd5b634e487b7160e01b87526041600452602487fd5b8135815260209182019101611d0d565b60249060405190630decee6760e31b82526004820152fd5b602491611fb4916149bd565b60405190632664776560e01b82526004820152fd5b8280fd5b503461059757602036600319011261059757600435611fea615191565b610bb881116105e45760165580f35b503461059757806003193601126105975760206040516113888152f35b50346105975780600319360112610597576020603254604051908152f35b503461059757806003193601126105975760255460405160089190911c6001600160a01b03168152602090f35b50346105975760203660031901126105975761207b61436b565b6001600160a01b03168152600e60205260408120546011548290818115158061212a575b6120b6575b50506116aa90604051938493846145f1565b915092506120c2614bca565b620f4240810180911161211657670de0b6b3a764000084019182851161210257506120f46116aa926120fb9285615a19565b93836158c9565b90386120a4565b634e487b7160e01b81526011600452602490fd5b634e487b7160e01b82526011600452602482fd5b5083151561209f565b50346105975760203660031901126105975761214d61436b565b612155615113565b6001600160a01b0316801561082657601d80546001600160a01b03191691909117905580f35b5034610597578060031936011261059757601a546040516001600160a01b039091168152602090f35b5034610597576080366003190112610597576121be6143c1565b60248035906121cb6143d1565b606435936121d76151c9565b6121df615234565b6121e7615264565b60ff81169460048610156124e55784156124e557601c546001600160a01b039390841680156124d3576004841015610cee5783600101858154169586156124c15785601e0154156124a9576040519661223f88614521565b6002885260403660208a013761012c42019485421161249657918c959493918b936000146123a457509761229c8387938b806122bd9b9c9d8754169283612285886146f1565b525416612291866146fe565b52601c54169061549a565b6040516338ed173960e01b81529687958694859330918c9060048701614b5b565b03925af1908115612399578791612377575b50805160001981019190821161236457906122e99161470e565b519281841061234757505091608091600080516020615d5483398151915293600a016123168282546149bd565b9055604051918252602082015260016040820152426060820152a25b6001600080516020615cd48339815191525580f35b908360449260405192632469eac560e01b84526004840152820152fd5b634e487b7160e01b885260116004528488fd5b61239391503d8089833e61238b818361453c565b810190614722565b386122cf565b6040513d89823e3d90fd5b98809597989496506123ba9193508992506146f1565b528a54166123c7836146fe565b52600a01948554888110612479575091878a6123ea959361229c8385849861549a565b03925af190811561239957879161245f575b50805160001981019190821161236457906124169161470e565b5192818410612347575050916080918361244083600080516020615d5483398151915296546147da565b90556040519182526020820152846040820152426060820152a2612332565b61247391503d8089833e61238b818361453c565b386123fc565b88604491896040519263a17e11d560e01b84526004840152820152fd5b634e487b7160e01b8d526011600452898dfd5b6040516301e9247160e01b8152600481018b90528890fd5b604051633378279360e01b8152600490fd5b604051637e0de1ef60e01b8152600490fd5b604051631f2a200560e01b8152600490fd5b5034610597578060031936011261059757602060ff600080516020615c9483398151915254166040519015158152f35b503461059757602036600319011261059757612541615113565b60043560325580f35b5034610597578060031936011261059757602060ff602554166040519015158152f35b50346105975780600319360112610597577f00000000000000000000000000000000000000000000000000000000000000006001600160a01b031630036125c6576020604051600080516020615c148339815191528152f35b60405163703e46dd60e11b8152600490fd5b5060a0366003190112610597576125ed6143c1565b606435908115158203610b59576084356001600160401b0381116129b5576126199036906004016143ef565b612621615159565b612629615234565b612631615264565b60255460081c6001600160a01b03908116949085156129a357602435156124e55760ff602854168061298c575b61296657808754166040516370a0823160e01b8152306004820152602081602481855afa90811561295b578991612929575b506024358110612917576126a2614bca565b6107d0918282029282840414821517156129035761271080930490816126ca602435836147da565b106128d8575050602a546126dd91614b48565b046126ec602435602e546149bd565b11610fe65760e460209266d529ae9e860000604051858101903060601b825260ff60f81b8b60f81b16603482015260243560358201524260558201526055815261273581614506565b51902091612787604051878101908582524360408201526040815261275981614521565b51902095604051888101908682528860408201526040815261277a81614521565b5190209c6024359161549a565b60255460081c166040519a8b95869463f112bf4760e01b865260ff8d166004870152602435602487015260443560448701528915156064870152608486015260a485015260c48401525af1948515610b655786956128a4575b50602654600160401b811015611f6c577f559c8ba62eea8be733e8059718c7990974a7086596a45744b3a51ac316af0ab39360ff93879693604060209a8961284b6128348860016113309a01602655614446565b819391549060031b91821b91600019901b19161790565b905589815260278c52206001871982541617905561286d602435602e546149bd565b602e5542602d556040519586951685526024358a86015260443560408601521515606085015260a0608085015260a084019161499c565b9094506020813d6020116128d0575b816128c06020938361453c565b81010312610b59575193386127e0565b3d91506128b3565b906128e8604492602435906147da565b90604051916304b7737560e11b835260048301526024820152fd5b634e487b7160e01b8b52601160045260248bfd5b60405163bc6072f160e01b8152600490fd5b90506020813d602011612953575b816129446020938361453c565b81010312610b59575138612690565b3d9150612937565b6040513d8b823e3d90fd5b6024612977602d54602c54906149bd565b6040519063d708887960e01b82526004820152fd5b5061299c602d54602c54906149bd565b421061265e565b604051632c1c647560e01b8152600490fd5b8380fd5b506040366003190112610597576129ce61436b565b60249182356001600160401b0381116109b557366023820112156109b5576129ff90369085816004013591016145ba565b6001600160a01b03927f00000000000000000000000000000000000000000000000000000000000000008416308114908115612bc7575b506125c657336000908152600080516020615d348339815191526020908152604090912054909490600080516020615b948339815191529060ff1615612baa57508116936040516352d1902d60e01b81528181600481895afa859181612b7b575b50612ab457604051634c9c8ce360e01b8152600481018790528790fd5b859087600080516020615c1483398151915291828103612b665750843b15612b50575080546001600160a01b031916821790556040518592917fbc7cd75a20ee27fd9adebab32041f755214dbc6bffa90cc0225b39da2e5c2d3b8480a2845115612b3357508351610e5094839201845af4612b2d6146c1565b91615a90565b935050505034612b41575080f35b63b398979f60e01b8152600490fd5b604051634c9c8ce360e01b815260048101849052fd5b60405190632a87526960e21b82526004820152fd5b9091508281813d8311612ba3575b612b93818361453c565b81010312610b5957519038612a97565b503d612b89565b866044916040519163e2517d3f60e01b8352336004840152820152fd5b905084600080516020615c148339815191525416141538612a36565b5034610597576020908160031936011261059757600435601b548110156109b557612c0e8391614492565b50805492600982019060405193849282815490612c2a826144b1565b80875292600192808416908115612cca5750600114612c86575b848a88612c7c8b612c57838c038461453c565b600a60018060a01b03910154169160606040519586958652850152606084019061455f565b9060408301520390f35b81528381209695945091905b818310612cb257509394509192509082010185612c57612c7c3880612c44565b86548884018501529586019587945091830191612c92565b60ff19168689015250505050151560051b830101905085612c57612c7c3880612c44565b50346105975780600319360112610597576020601354604051908152f35b50346105975780600319360112610597576020604051600080516020615cb48339815191528152f35b5034610597578060031936011261059757612d4e615191565b612d56615234565b6123326149ca565b503461059757604036600319011261059757612d786143c1565b612d80614381565b612d88615113565b600460ff831610156110d2576001600160a01b0316801561082657600482101561108c576001820180546001600160a01b0319168217905560405163313ce56760e01b81529190602090839060049082905afa918215612e51578392612e10575b5090612df7610ed992614652565b90919060ff8084549260031b9316831b921b1916179055565b91506020823d602011612e49575b81612e2b6020938361453c565b81010312611fc957612df7612e42610ed9936146b3565b9250612de9565b3d9150612e1e565b6040513d85823e3d90fd5b50346105975760203660031901126105975760043590602654821015610597576020612e8783614446565b90546040519160031b1c8152f35b5034610597576020806003193601126109b557612eb061436b565b612eb8615113565b612ec0615234565b6001600160a01b0390811691821561082657818454168314612fad57835b600460ff821610612f8c57506040516370a0823160e01b81523060048201528181602481875afa908115612f81578591612f54575b508015610b2057612f3881600080516020615d1483398151915294601a541686615460565b604051908152a26001600080516020615cd48339815191525580f35b90508181813d8311612f7a575b612f6b818361453c565b81010312610b59575138612f13565b503d612f61565b6040513d87823e3d90fd5b60048110156107a957828160010154168414612fad5760010160ff16612ede565b604051632cb2369960e11b8152600490fd5b50346105975760403660031901126105975760248035600435612fe0615234565b612fe8615264565b60ff60315416806132e1575b6114d95766038d7ea4c6800081106124e55733600052602092600e8452604060002080548381106132c45750601161302d8154856155c7565b6033548091116132a75750620151804204603054810361327a575b506130516156ac565b613059614bca565b94620f4240860180871161326657825490670de0b6b3a76400008201809211613252576130949161308a9188615a19565b966034549061584e565b602f5490806130a389846149bd565b1161322b5750866130b3916149bd565b602f5580861061320e57506000546040516370a0823160e01b81523060048201526001600160a01b03949091889083908390829089165afa918215613202576000926131d3575b508682106131b6575050918161315793613116868895546147da565b8255600282016131278582546149bd565b90556131348682546147da565b9055613142836013546149bd565b6013555415613183575b339060005416615460565b7f94ffd6b85c71b847775c89ef6496b93cee961bdc6ff827fd117f174f06f745ae61133061130d615679565b3360005260108652604060002060ff198154169055604051428152600080516020615b34833981519152873392a261314c565b60449187916040519263a17e11d560e01b84526004840152820152fd5b9091508781813d83116131fb575b6131eb818361453c565b81010312610b59575190886130fa565b503d6131e1565b6040513d6000823e3d90fd5b8560449185604051926371c4efed60e01b84526004840152820152fd5b856132396044938a936147da565b906040519263efdc9c1160e01b84526004840152820152fd5b8584634e487b7160e01b6000526004526000fd5b8483634e487b7160e01b6000526004526000fd5b600080516020615bd48339815191526040602f548151908482528a820152a16000602f5560305586613048565b8460449185604051926311371baf60e11b84526004840152820152fd5b83604491846040519263658ec5dd60e11b84526004840152820152fd5b5060ff6025541615612ff4565b5034610597578060031936011261059757613307615113565b600080516020615c94833981519152805460ff8116156133545760ff191690557f5db9ee0a495bf2e6ff9c91a7834c1ba4fdd244a5e8aa4e537bd38aeae4b073aa6020604051338152a180f35b604051638dfc202b60e01b8152600490fd5b5034610597576080366003190112610597573660841161059757613388615113565b805b60ff811660048110156133ff576133a08161467c565b356133b2575b5060010160ff1661338a565b6133bb8161467c565b3560048310156133eb57918360019260ff9483601e0155600080516020615b548339815191528280a391506133a6565b634e487b7160e01b84526032600452602484fd5b8280f35b50346105975780600319360112610597576040519061342182614506565b608036833760405161343281614506565b60803682376040519261344484614506565b6080368537600180938181905b61348c575b60405186151581526101a0906107dc8961348189613477602086018b61441c565b60a085019061441c565b61012083019061441c565b60ff8116600481101561359157600482101561108c579083929181601e015415156134b7828861468e565b526134c2818761468e565b516134d6575b508260ff9101169091613451565b90918093506134e483615312565b92939050839182613584575b50506134fc848a61468e565b90151590528161356e575b50613512828a61468e565b901515905281600a01541515908161353e575b50613534575b908291386134c8565b909450849061352b565b905061354a818761468e565b511590811561355b575b5038613525565b61356691508861468e565b511538613554565b6135799150426147da565b602254101538613507565b60070b13905085386134f0565b50613456565b50346105975780600319360112610597576020601154604051908152f35b50346105975780600319360112610597576020601554604051908152f35b506040366003190112610597576004356001600160401b0360248035828111613923576136049036906004016143ef565b9261360d615159565b613615615234565b61361d615264565b848652602760205260ff6040872054161561390b57602554604051630a039dfd60e41b808252600482018890526101a095926001600160a01b039060081c811687848681845afa958615613900578b948c976138cf575b50600160ff819816036138bd57818c923b15611fc9578290878d6040519586938492637bb2c26160e01b845260048401525af180156138b25761388b575b5050869060255460081c1691846040518094819382528c60048301525afa95861561295b578996613849575b5050868852602760205260408820805460ff19169055602e548392918082111561383b5761370b916147da565b979695949392975b602e5586975b613766575b50509061374e600080516020615d948339815191529392604051938493845260406020850152604084019161499c565b0390a26001600080516020615cd48339815191525580f35b60268054808a10156138345790879161377e8b614446565b939054600394851b1c14613799575050509681019681613719565b9291949990935060001992838101908111613821576128346137bd6137c992614446565b905490881b1c92614446565b9055825490811561380f5750918161374e9492600080516020615d9483398151915298999a9401926137fa84614446565b81939154921b1b19169055559086959461371e565b634e487b7160e01b8952603160045288fd5b634e487b7160e01b8a526011600452828afd5b505061371e565b505087969594939297613713565b8493929650908161386e92903d10613884575b613866818361453c565b81019061491d565b509a5050505050505050505050949091386136de565b503d61385c565b819b929b1161389f576040529886386136b2565b634e487b7160e01b825260416004528482fd5b6040513d8e823e3d90fd5b6040516363928d0f60e01b8152600490fd5b9096506138ea919450883d8a1161388457613866818361453c565b9e9b505050505050505092505050939538613674565b6040513d8d823e3d90fd5b6040516370facb8f60e01b8152600481018690528390fd5b8480fd5b503461059757604036600319011261059757613941614381565b336001600160a01b0382160361395d57610e509060043561528f565b60405163334bd91960e11b8152600490fd5b50346105975760203660031901126105975760043560048110156109b557602090600a0154604051908152f35b50346105975760603660031901126105975760206116ec6139bb6143c1565b6139c36143d1565b90602435906147fd565b503461059757604036600319011261059757610e506004356139ed614381565b90808452600080516020615c74833981519152602052613a136001604086200154615201565b61509e565b5034610597576020908160031936011261059757600435613a37615234565b613a3f615264565b60ff6031541680613cd1575b6114d95766038d7ea4c6800081106124e557338252600e835260408220918254828110613cb357506011613a808154846155c7565b603354809111613c9557506201518042046030548103613c69575b50613aa46156ac565b613aac614bca565b93620f42408501808611613c5557825490670de0b6b3a76400008201809211613c4157613ae791613add9187615a19565b956034549061584e565b602f549080613af688846149bd565b11613c1a575085613b06916149bd565b602f5582546040516370a0823160e01b81523060048201526001600160a01b03939188908290602490829088165afa908115612f81578591613bed575b50868110613bcf575091818693613b5f876131579795546147da565b825560028201613b708682546149bd565b9055613b7d8782546147da565b9055613b8b846013546149bd565b6013555415613b9e575b33915416615460565b338252601087526040822060ff198154169055604051428152600080516020615b34833981519152883392a2613b95565b866044916040519163a17e11d560e01b835260048301526024820152fd5b90508781813d8311613c13575b613c04818361453c565b81010312613923575138613b43565b503d613bfa565b613c2760449288926147da565b6040519163efdc9c1160e01b835260048301526024820152fd5b634e487b7160e01b85526004849052602485fd5b634e487b7160e01b84526004839052602484fd5b600080516020615bd48339815191526040602f5481519084825289820152a182602f5560305538613a9b565b83604491604051916311371baf60e11b835260048301526024820152fd5b826044916040519163658ec5dd60e11b835260048301526024820152fd5b5060ff6025541615613a4b565b503461059757806003193601126105975760ff60285416602954906116aa602a54602b54602c5490602d549260405196879687614397565b50346105975780600319360112610597576020602f54604051908152f35b503461059757602036600319011261059757600160406020926004358152600080516020615c748339815191528452200154604051908152f35b50346105975780600319360112610597576020604051600080516020615c548339815191528152f35b5034610597578060031936011261059757613db0615113565b613db8615234565b478015610b2057818080808460018060a01b03601a54165af1613dd96146c1565b5015613e0e57600080516020615d1483398151915260208392604051908152a26001600080516020615cd48339815191525580f35b60405163b8eaf7a160e01b8152600490fd5b503461059757602036600319011261059757600435613e3d615113565b603c81108015613e64575b613e525760225580f35b604051631809b0a160e11b8152600490fd5b50620151808111613e48565b5034610597578060031936011261059757602060405160048152f35b503461059757806003193601126105975760206040516105dc8152f35b5034610597578060031936011261059757602060ff603154166040519015158152f35b50346105975780600319360112610597576020601954604051908152f35b50346105975760e036600319011261059757613f0461436b565b3660a4116109b55760a4356001600160a01b03818116918290036129b55760c43581811680820361421057600080516020615d748339815191529384549360ff9260ff8660401c16159560018060401b03811698891580614209575b6001809b1490816141ff575b1590816141f6575b506141e4576001600160401b031982168a1789558391886141c9575b50169081156108265783156108265715610826578792613fae6157c3565b613fb66157c3565b613fbe6157c3565b83600080516020615cd483398151915255613fd76157c3565b613fdf6157c3565b60018060a01b031991828b5416178a5581601a541617601a558289905b6140c3575b505050505061407d906109c48060065580600755806008558060095560326015556103e8601655610e106023554260195564174876e800603255603355611388603455670de0b6b3a764000060145561405981614e04565b5061406381614e80565b5061406d81614f0c565b5061407781614f92565b50615018565b50614086578280f35b805460ff60401b191690556040519081527fc7f505b2f371ae2175ee4913f4499e1f2633a7b5936321eed1cdaeb6115181d290602090a138808280f35b84811660048110156141c3579081846140e46140df899561466a565b61469f565b166140f4575b5084011683613ffc565b91509350826141056140df8361466a565b1660048510156141af576140df849261412892878d01908682541617905561466a565b1660405193849163313ce56760e01b835282600460209485935afa8015613900578a9587938d9261416b575b5050906141658692612df783614652565b906140ea565b92935095505084813d83116141a8575b614185818361453c565b810103126141a45788859161416561419d83976146b3565b9192614154565b8980fd5b503d61417b565b634e487b7160e01b8b52603260045260248bfd5b50614001565b6001600160481b0319166001600160401b0117895538613f90565b60405163f92ee8a960e01b8152600490fd5b90501538613f74565b303b159150613f6c565b5087613f60565b8580fd5b50346105975760203660031901126105975760c0906040906001600160a01b0361423c61436b565b168152600e6020522080549060018101549060028101546003820154906005600484015493015493604051958652602086015260408501526060840152608083015260a0820152f35b5034610597578060031936011261059757602060405166d529ae9e8600008152f35b5034610597578060031936011261059757601c546040516001600160a01b039091168152602090f35b503461059757806003193601126105975760206040516101f48152f35b50346105975780600319360112610597576020604051600080516020615bb48339815191528152f35b9050346109b55760203660031901126109b55760043563ffffffff60e01b8116809103611fc95760209250637965db0b60e01b811490811561435a575b5015158152f35b6301ffc9a760e01b14905038614353565b600435906001600160a01b0382168203610b5957565b602435906001600160a01b0382168203610b5957565b9260a094919796959260c08501981515855260208501526040840152606083015260808201520152565b6004359060ff82168203610b5957565b604435908115158203610b5957565b600435908115158203610b5957565b9181601f84011215610b59578235916001600160401b038311610b595760208381860195010111610b5957565b6000915b6004831061442d57505050565b6001908251151581526020809101920192019190614420565b60265481101561446157602660005260206000200190600090565b634e487b7160e01b600052603260045260246000fd5b600f5481101561446157600f60005260206000200190600090565b601b5481101561446157601b600052600b602060002091020190600090565b90600182811c921680156144e1575b60208310146144cb57565b634e487b7160e01b600052602260045260246000fd5b91607f16916144c0565b60c081019081106001600160401b0382111761140357604052565b608081019081106001600160401b0382111761140357604052565b606081019081106001600160401b0382111761140357604052565b601f909101601f19168101906001600160401b0382119082101761140357604052565b919082519283825260005b84811061458b575050826000602080949584010152601f8019910116010190565b60208183018101518483018201520161456a565b6001600160401b03811161140357601f01601f191660200190565b9291926145c68261459f565b916145d4604051938461453c565b829481845281830111610b59578281602093846000960137010152565b6040919493926060820195825260208201520152565b34610b59576000366003190112610b59576020604051670de0b6b3a76400008152f35b6000915b6004831061463b57505050565b60019082518152602080910192019201919061462e565b90600482101561446157601f8260051c600501921690565b60048110156144615760051b60240190565b60048110156144615760051b60040190565b9060048110156144615760051b0190565b356001600160a01b0381168103610b595790565b519060ff82168203610b5957565b3d156146ec573d906146d28261459f565b916146e0604051938461453c565b82523d6000602084013e565b606090565b8051156144615760200190565b8051600110156144615760400190565b80518210156144615760209160051b010190565b906020908183820312610b595782516001600160401b0393848211610b59570181601f82011215610b59578051938411611403578360051b906040519461476b8584018761453c565b85528380860192820101928311610b59578301905b82821061478e575050505090565b81518152908301908301614780565b90815180825260208080930193019160005b8281106147bd575050505090565b83516001600160a01b0316855293810193928101926001016147af565b919082039182116147e757565b634e487b7160e01b600052601160045260246000fd5b601c546001600160a01b039493908516929091831561491357600481101561446157600101548516801561491357614893956040519361483c85614521565b600285526040366020870137156148f5576000541661485a846146f1565b52614864836146fe565b525b60405192839163d06ca61f60e01b835260048301526040602483015281806000978895604483019061479d565b03915afa8391816148d9575b506148a75750565b80516000198101919082116148c5576148c192935061470e565b5190565b634e487b7160e01b84526011600452602484fd5b6148ee9192503d8086833e61238b818361453c565b903861489f565b906148ff846146f1565b526000541661490d836146fe565b52614866565b5060009450505050565b90816101a0910312610b5957805160208201519092906001600160a01b0381168103610b59579160408101519160608201519160808101519160a08201519160c08101518015158103610b59579160e08201519161010081015191610120820151916101408101519161499961018061016084015193016146b3565b90565b908060209392818452848401376000828201840152601f01601f1916010190565b919082018092116147e757565b6017546149d9601854826149bd565b908115614b4457600080546040516370a0823160e01b81523060048201526001600160a01b0394916020908290602490829089165afa908115612e51578391614b12575b50600a614a28614bca565b0480821115614b0957614a3a916147da565b905b81811115614b015750925b8315614afb57614aac84826040947fdeb5099d7943aa2b4c1142e5d53d2f7636aa8f7bd130ec79816f151572bcdf459683809180821015600014614ae8575050601754614a93916147da565b816017555b80614abf575b50541683601a541690615460565b601a5416928151908152426020820152a2565b60185490818110614ad7575050806018555b38614a9e565b614ae0916147da565b601855614ad1565b614af292506147da565b60175580614a98565b50505050565b905092614a47565b50508190614a3c565b90506020813d602011614b3c575b81614b2d6020938361453c565b81010312611fc9575138614a1d565b3d9150614b20565b5050565b818102929181159184041417156147e757565b9192608093614b8092979695978452602084015260a0604084015260a083019061479d565b6001600160a01b0390951660608201520152565b6040519060066000835b60048210614bb457505050614bb282614506565b565b6001602081928554815201930191019091614b9e565b60009060018060a01b038254169160409081516370a0823160e01b815280602081600497308983015260249485915afa908115614d7a578391614d48575b5094938294602254965b60ff8088169083821015614d3b5783891015614d295788600a01548015614d1b5789601e015415614d0057614c468a615312565b91949295909515614ceb578460070b8b811315614ccf57508d614c6983426147da565b11614cae575050600193614ca49360ff9693614c9e93614c888f614652565b90549060031b1c1691878060401b03169061560d565b906149bd565b975b011695614c12565b8d6064928b8a938f51946387eee84360e01b86528501528301526044820152fd5b8c51632d48197f60e11b8152808a0192909252818b0152604490fd5b878a918d519163311dd80760e11b8352820152fd5b8460449188858c519363b5ef906560e01b8552840152820152fd5b50505095600160ff91614ca6565b634e487b7160e01b8752603284528587fd5b5050955050945050505090565b90506020813d602011614d72575b81614d636020938361453c565b81010312611fc9575138614c08565b3d9150614d56565b84513d85823e3d90fd5b600160ff1b81146147e75760000390565b60ff6028541615614dff5760255460081c6001600160a01b031615614dfa57614dc3602d54602c54906149bd565b4210614df557614dd1614bca565b612710614de4602e5492602a5490614b48565b041115614df057600090565b600490565b600390565b600290565b600190565b6001600160a01b03166000818152600080516020615bf48339815191526020526040812054909190600080516020615c748339815191529060ff16614e7b578280526020526040822081835260205260408220600160ff198254161790553391600080516020615af48339815191528180a4600190565b505090565b6001600160a01b03166000818152600080516020615cf48339815191526020526040812054909190600080516020615c5483398151915290600080516020615c748339815191529060ff16614f06578184526020526040832082845260205260408320600160ff19825416179055600080516020615af4833981519152339380a4600190565b50505090565b6001600160a01b03166000818152600080516020615b748339815191526020526040812054909190600080516020615cb483398151915290600080516020615c748339815191529060ff16614f06578184526020526040832082845260205260408320600160ff19825416179055600080516020615af4833981519152339380a4600190565b6001600160a01b03166000818152600080516020615d348339815191526020526040812054909190600080516020615b9483398151915290600080516020615c748339815191529060ff16614f06578184526020526040832082845260205260408320600160ff19825416179055600080516020615af4833981519152339380a4600190565b6001600160a01b03166000818152600080516020615c348339815191526020526040812054909190600080516020615bb483398151915290600080516020615c748339815191529060ff16614f06578184526020526040832082845260205260408320600160ff19825416179055600080516020615af4833981519152339380a4600190565b90600091808352600080516020615c7483398151915280602052604084209260018060a01b03169283855260205260ff60408520541615600014614f06578184526020526040832082845260205260408320600160ff19825416179055600080516020615af4833981519152339380a4600190565b336000908152600080516020615bf4833981519152602052604081205460ff161561513b5750565b6044906040519063e2517d3f60e01b82523360048301526024820152fd5b336000908152600080516020615cf48339815191526020526040902054600080516020615c548339815191529060ff161561513b5750565b336000908152600080516020615c348339815191526020526040902054600080516020615bb48339815191529060ff161561513b5750565b336000908152600080516020615b748339815191526020526040902054600080516020615cb48339815191529060ff161561513b5750565b80600052600080516020615c7483398151915260205260406000203360005260205260ff604060002054161561513b5750565b600080516020615cd483398151915260028154146152525760029055565b604051633ee5aeb560e01b8152600490fd5b60ff600080516020615c94833981519152541661527d57565b60405163d93c066560e01b8152600490fd5b90600091808352600080516020615c7483398151915280602052604084209260018060a01b03169283855260205260ff604085205416600014614f0657818452602052604083208284526020526040832060ff1981541690557ff6391f5c32d9c69d2a47ea670b442974b53935d1edc7fd64eb21e047a839171b339380a4600190565b601d546001600160a01b031690811561543557600481101561446157601e015490608060225460446040948551948593849263052571af60e51b8452600484015260248301525afa8091600091615396575b509061537a575050600090600090600090600090565b90916060825160070b9383015160030b92015190600193929190565b6080813d60801161542d575b816153af6080938361453c565b810103126109b5578351916001600160401b03608084018181118582101761541957865282518060070b8103611fc9578452602083015190811681036109b557602084015284820151908160030b8203610597575090606091858401520151606082015238615364565b634e487b7160e01b83526041600452602483fd5b3d91506153a2565b5050600090600090600090600090565b6001600160a01b039091168152602081019190915260400190565b615495614bb2939261548760405194859263a9059cbb60e01b602085015260248401615445565b03601f19810184528361453c565b6157f2565b604051636eb1769f60e11b81523060048201526001600160a01b03808416602483018190529490831693916020918282604481895afa801561320257600090615598575b6154e892506149bd565b938160006040519661551e886155108582019363095ea7b360e01b998a865260248401615445565b03601f1981018a528961453c565b87519082885af1903d6000519083615579575b50505015615541575b5050505050565b61556f9461549592604051928301526024820152600060448201526044815261556981614506565b826157f2565b388080808061553a565b9192509061558e57503b15155b388080615531565b6001915014615586565b508282813d83116155c0575b6155ae818361453c565b81010312610b59576154e891516154de565b503d6155a4565b906155d281836158c9565b9080156155e95761271061499993091515906149bd565b634e487b7160e01b600052601260045260246000fd5b604d81116147e757600a0a90565b9160ff169260030b8084039360008092128186128116918613901516176121025760051984019384136001166121025783126156555761564f614999936155ff565b91615a19565b6156739061566d61566861499995614d84565b6155ff565b90614b48565b90615969565b615681614bca565b620f424081018091116147e757601154670de0b6b3a764000081018091116147e7576149999161599a565b6156b4614bca565b801580156157b9575b6157b6576156e964496cebb800916156e46156da601954426147da565b9160155490614b48565b614b48565b046156f2615679565b90600091601454808211615778575b505061570f816017546149bd565b60175561571e826018546149bd565b60185542601955801580159061576f575b615737575050565b7fa54e6c2fc0861aa9c991b26891d71059d517983b9e84b91020f42609c452eb9d9161576a6040519283924291846145f1565b0390a1565b5081151561572f565b819350670de0b6b3a76400006157a06157976157aa93612710956147da565b60115490614b48565b0460165490614b48565b04916014553880615701565b50565b50601154156156bd565b60ff600080516020615d748339815191525460401c16156157e057565b604051631afcd79f60e31b8152600490fd5b906000602091828151910182855af115613202576000513d61584557506001600160a01b0381163b155b6158235750565b604051635274afe760e01b81526001600160a01b039091166004820152602490fd5b6001141561581c565b90600019818309818302918280831092039180830392146158be5761271090828211156158ab577fbc01a36e2eb1c432ca57a786c226809d495182a9930be0ded288ce703afb7e91940990828211900360fc1b910360041c170290565b634e487b7160005260116020526024601cfd5b505061271091500490565b61271091600019838309928083029283808610950394808603951461595b5784831115615942579082910981600003821680920460028082600302188083028203028083028203028083028203028083028203028083028203028092029003029360018380600003040190848311900302920304170290565b82634e487b71600052156003026011186020526024601cfd5b5050809250156155e9570490565b60001982820991808202928380821091038181146159935703600111156158ab5760019109900390565b5050505090565b670de0b6b3a764000091600019838309928083029283808610950394808603951461595b5784831115615942579082910981600003821680920460028082600302188083028203028083028203028083028203028083028203028083028203028092029003029360018380600003040190848311900302920304170290565b9091600019838309928083029283808610950394808603951461595b5784831115615942579082910981600003821680920460028082600302188083028203028083028203028083028203028083028203028083028203028092029003029360018380600003040190848311900302920304170290565b90615ab75750805115615aa557602081519101fd5b60405163d6bda27560e01b8152600490fd5b81511580615aea575b615ac8575090565b604051639996b31560e01b81526001600160a01b039091166004820152602490fd5b50803b15615ac056fe2f8788117e7eff1d82e926ec794901d17c78024a50270940304540a733656f0d2a804b72bf07e6777cfc661a7ecd3b36c09534920c073116381e5c5360032b9be0c638b9625a325005e6284e1bc01fa3455c7bec5ae11bcf9de99160980ae910bd382879f828d224f29c5840ee8e3814d8bec9d75ba08ae8cab38ac41f085edea8a3860fa4f0c36dd670e38f964dd3886748125905e61ccbad5bcfb7f234c6b2189ab7a9244df0848122154315af71fe140f3db0fe014031783b0946b8c9d2e36c0757dc3e6b28b2580c03fd9e96c274acf4f99d91fbec9b418fa1d70604ff1c6bf6a74b7f7c634466dda40dafdcbe248bcb8ce3d0c7874df9a35010fdc6d36fb7db2dd08fcb62d0c9e08c51941cae53c267786a0b75803fb7960902fc8ef97d360894a13ba1a3210667c828492db98dca3e2076cc3735a920a3ca505d382bbc294f263e68a44628370ca7eca46e11f3043892ee36ff7375f356adc9c8117805cab5a0bfe0b79d2c4b1c2e02599fa044d115b7511f9659307cb427695096770902dd7bc7dec4dceedda775e58dd541e08a116c6c53815c0bd028192f7b626800cd5ed15c6e187e77e9aee88184c21f4f2182ab5827cb3b7e07fbedcd63f03300ccc64574297998b6c3edf6078cc5e01268465ff116954e3af02ff3a70a730f469b779b17422d0df92223018b32b4d1fa46e071723d6817e2486d003becc55f0081cf8a8d68c3bf977ff8d17e8ef6f30dbea1776614c7d2258c5ab1b17338333f68f67de89e96b13a3ea058af5fd44cc125efceb528482d539c7b43db2faa066eab71e3f32666744d246edff3f96e4bdafee2e9867098cdd118a979a7464786a8dd179894100a45046426d168707e489353c2652e5316d9bf70b5e6fbc9f10bd5f0c57e16840df040f15088dc2f81fe391c3923bec73e23a9662efc9c229c6a00759fc66f0e8b10ecd6111ed42a72c7d255e7b56deade72b0937d58accc088e82a264697066735822122021aee31cdf04f93a01af3e511afe1b61ffafe38e187903a2a104a17e44fc7d1864736f6c63430008160033",
  "linkReferences": {},
  "deployedLinkReferences": {}
}